{
  "contractName": "PatientContract",
  "abi": [
    {
      "inputs": [
        {
          "internalType": "address",
          "name": "UserContractAddress",
          "type": "address"
        }
      ],
      "stateMutability": "nonpayable",
      "type": "constructor"
    },
    {
      "anonymous": false,
      "inputs": [
        {
          "indexed": false,
          "internalType": "uint256",
          "name": "_userID",
          "type": "uint256"
        }
      ],
      "name": "LoggedIn",
      "type": "event"
    },
    {
      "anonymous": false,
      "inputs": [
        {
          "indexed": false,
          "internalType": "uint256",
          "name": "_patientID",
          "type": "uint256"
        },
        {
          "indexed": false,
          "internalType": "string",
          "name": "_patientName",
          "type": "string"
        }
      ],
      "name": "PatientAdded",
      "type": "event"
    },
    {
      "anonymous": false,
      "inputs": [
        {
          "indexed": false,
          "internalType": "uint256",
          "name": "_patientID",
          "type": "uint256"
        },
        {
          "indexed": false,
          "internalType": "uint256",
          "name": "_phoneNumber",
          "type": "uint256"
        }
      ],
      "name": "PatientDemographicsAdded",
      "type": "event"
    },
    {
      "anonymous": false,
      "inputs": [
        {
          "indexed": false,
          "internalType": "string",
          "name": "_insuranceName",
          "type": "string"
        },
        {
          "indexed": false,
          "internalType": "uint256",
          "name": "_insuranceCardNumber",
          "type": "uint256"
        }
      ],
      "name": "PatientInsuranceAdded",
      "type": "event"
    },
    {
      "anonymous": false,
      "inputs": [
        {
          "indexed": false,
          "internalType": "uint256",
          "name": "_patientID",
          "type": "uint256"
        }
      ],
      "name": "PatientRecordAdded",
      "type": "event"
    },
    {
      "anonymous": false,
      "inputs": [
        {
          "indexed": false,
          "internalType": "uint256",
          "name": "_patientID",
          "type": "uint256"
        },
        {
          "indexed": false,
          "internalType": "uint256",
          "name": "appointmentID",
          "type": "uint256"
        }
      ],
      "name": "RecordReportAdded",
      "type": "event"
    },
    {
      "anonymous": false,
      "inputs": [
        {
          "indexed": false,
          "internalType": "uint256",
          "name": "userID",
          "type": "uint256"
        },
        {
          "indexed": false,
          "internalType": "string",
          "name": "_userName",
          "type": "string"
        }
      ],
      "name": "RegistrationSuccessful",
      "type": "event"
    },
    {
      "anonymous": false,
      "inputs": [
        {
          "indexed": false,
          "internalType": "uint256",
          "name": "userID",
          "type": "uint256"
        },
        {
          "indexed": false,
          "internalType": "string",
          "name": "userName",
          "type": "string"
        },
        {
          "indexed": false,
          "internalType": "string",
          "name": "email",
          "type": "string"
        },
        {
          "indexed": false,
          "internalType": "string",
          "name": "role",
          "type": "string"
        }
      ],
      "name": "UserDisplay",
      "type": "event"
    },
    {
      "inputs": [],
      "name": "getTotalUsers",
      "outputs": [
        {
          "internalType": "uint256",
          "name": "",
          "type": "uint256"
        }
      ],
      "stateMutability": "view",
      "type": "function",
      "constant": true
    },
    {
      "inputs": [
        {
          "internalType": "string",
          "name": "_email",
          "type": "string"
        },
        {
          "internalType": "string",
          "name": "_password",
          "type": "string"
        }
      ],
      "name": "login",
      "outputs": [
        {
          "internalType": "bool",
          "name": "",
          "type": "bool"
        }
      ],
      "stateMutability": "view",
      "type": "function",
      "constant": true
    },
    {
      "inputs": [
        {
          "internalType": "string",
          "name": "_userName",
          "type": "string"
        },
        {
          "internalType": "string",
          "name": "_email",
          "type": "string"
        },
        {
          "internalType": "string",
          "name": "_password",
          "type": "string"
        },
        {
          "internalType": "enum UserContract.Role",
          "name": "_role",
          "type": "uint8"
        }
      ],
      "name": "register",
      "outputs": [],
      "stateMutability": "nonpayable",
      "type": "function"
    },
    {
      "inputs": [],
      "name": "userContract",
      "outputs": [
        {
          "internalType": "contract UserContract",
          "name": "",
          "type": "address"
        }
      ],
      "stateMutability": "view",
      "type": "function",
      "constant": true
    },
    {
      "inputs": [
        {
          "internalType": "string",
          "name": "_patientName",
          "type": "string"
        },
        {
          "internalType": "uint256",
          "name": "_dob",
          "type": "uint256"
        }
      ],
      "name": "addPatient",
      "outputs": [],
      "stateMutability": "nonpayable",
      "type": "function"
    },
    {
      "inputs": [
        {
          "internalType": "uint256",
          "name": "_patientID",
          "type": "uint256"
        }
      ],
      "name": "getPatient",
      "outputs": [
        {
          "components": [
            {
              "internalType": "uint256",
              "name": "patientID",
              "type": "uint256"
            },
            {
              "internalType": "string",
              "name": "patientName",
              "type": "string"
            },
            {
              "internalType": "uint256",
              "name": "dob",
              "type": "uint256"
            }
          ],
          "internalType": "struct PatientContract.Patient",
          "name": "",
          "type": "tuple"
        }
      ],
      "stateMutability": "nonpayable",
      "type": "function"
    },
    {
      "inputs": [
        {
          "internalType": "uint256",
          "name": "_patientID",
          "type": "uint256"
        },
        {
          "internalType": "string",
          "name": "_gender",
          "type": "string"
        },
        {
          "internalType": "uint256",
          "name": "_phoneNumber",
          "type": "uint256"
        },
        {
          "internalType": "string",
          "name": "_educationLevel",
          "type": "string"
        },
        {
          "internalType": "string",
          "name": "_country",
          "type": "string"
        },
        {
          "internalType": "string",
          "name": "_religion",
          "type": "string"
        },
        {
          "internalType": "string",
          "name": "_tribe",
          "type": "string"
        },
        {
          "internalType": "string",
          "name": "_maritalStatus",
          "type": "string"
        },
        {
          "internalType": "string",
          "name": "_region",
          "type": "string"
        },
        {
          "internalType": "string",
          "name": "_occupation",
          "type": "string"
        },
        {
          "internalType": "string",
          "name": "_residence",
          "type": "string"
        }
      ],
      "name": "addPatientDemographics",
      "outputs": [],
      "stateMutability": "nonpayable",
      "type": "function"
    },
    {
      "inputs": [
        {
          "internalType": "uint256",
          "name": "_patientID",
          "type": "uint256"
        }
      ],
      "name": "getPatientDemographics",
      "outputs": [
        {
          "components": [
            {
              "internalType": "uint256",
              "name": "patientID",
              "type": "uint256"
            },
            {
              "internalType": "string",
              "name": "gender",
              "type": "string"
            },
            {
              "internalType": "uint256",
              "name": "phoneNumber",
              "type": "uint256"
            },
            {
              "internalType": "string",
              "name": "educationLevel",
              "type": "string"
            },
            {
              "internalType": "string",
              "name": "country",
              "type": "string"
            },
            {
              "internalType": "string",
              "name": "religion",
              "type": "string"
            },
            {
              "internalType": "string",
              "name": "tribe",
              "type": "string"
            },
            {
              "internalType": "string",
              "name": "maritalStatus",
              "type": "string"
            },
            {
              "internalType": "string",
              "name": "region",
              "type": "string"
            },
            {
              "internalType": "string",
              "name": "occupation",
              "type": "string"
            },
            {
              "internalType": "string",
              "name": "residence",
              "type": "string"
            }
          ],
          "internalType": "struct PatientContract.PatientDemographics",
          "name": "",
          "type": "tuple"
        }
      ],
      "stateMutability": "nonpayable",
      "type": "function"
    },
    {
      "inputs": [
        {
          "internalType": "uint256",
          "name": "_patientID",
          "type": "uint256"
        },
        {
          "internalType": "string",
          "name": "_insuranceName",
          "type": "string"
        },
        {
          "internalType": "uint256",
          "name": "_insuranceCardNumber",
          "type": "uint256"
        },
        {
          "internalType": "bool",
          "name": "_insuranceCardStatus",
          "type": "bool"
        }
      ],
      "name": "addPatientInsurance",
      "outputs": [],
      "stateMutability": "nonpayable",
      "type": "function"
    },
    {
      "inputs": [
        {
          "internalType": "uint256",
          "name": "_patientID",
          "type": "uint256"
        }
      ],
      "name": "getPatientInsurance",
      "outputs": [
        {
          "components": [
            {
              "internalType": "uint256",
              "name": "patientID",
              "type": "uint256"
            },
            {
              "internalType": "string",
              "name": "insuranceName",
              "type": "string"
            },
            {
              "internalType": "uint256",
              "name": "insuranceCardNumber",
              "type": "uint256"
            },
            {
              "internalType": "bool",
              "name": "insuranceCardStatus",
              "type": "bool"
            }
          ],
          "internalType": "struct PatientContract.PatientInsurance",
          "name": "",
          "type": "tuple"
        }
      ],
      "stateMutability": "nonpayable",
      "type": "function"
    },
    {
      "inputs": [
        {
          "internalType": "uint256",
          "name": "_patientID",
          "type": "uint256"
        }
      ],
      "name": "generatePatientAddress",
      "outputs": [],
      "stateMutability": "nonpayable",
      "type": "function"
    },
    {
      "inputs": [
        {
          "internalType": "uint256",
          "name": "_doctorID",
          "type": "uint256"
        },
        {
          "internalType": "uint256",
          "name": "_patientID",
          "type": "uint256"
        }
      ],
      "name": "addAppointment",
      "outputs": [],
      "stateMutability": "nonpayable",
      "type": "function"
    },
    {
      "inputs": [
        {
          "internalType": "uint256",
          "name": "_appointmentID",
          "type": "uint256"
        }
      ],
      "name": "viewAppointment",
      "outputs": [
        {
          "components": [
            {
              "internalType": "uint256",
              "name": "appointmentID",
              "type": "uint256"
            },
            {
              "internalType": "uint256",
              "name": "patientID",
              "type": "uint256"
            },
            {
              "internalType": "uint256",
              "name": "doctorID",
              "type": "uint256"
            }
          ],
          "internalType": "struct PatientContract.Appointment",
          "name": "",
          "type": "tuple"
        }
      ],
      "stateMutability": "view",
      "type": "function",
      "constant": true
    },
    {
      "inputs": [
        {
          "internalType": "uint256",
          "name": "_patientID",
          "type": "uint256"
        },
        {
          "internalType": "uint256",
          "name": "_appointmentID",
          "type": "uint256"
        },
        {
          "internalType": "string",
          "name": "_symptoms",
          "type": "string"
        },
        {
          "internalType": "string",
          "name": "_diagnosis",
          "type": "string"
        },
        {
          "internalType": "bool",
          "name": "_test",
          "type": "bool"
        },
        {
          "internalType": "string",
          "name": "_prescription",
          "type": "string"
        }
      ],
      "name": "addPatientRecord",
      "outputs": [],
      "stateMutability": "nonpayable",
      "type": "function"
    },
    {
      "inputs": [
        {
          "internalType": "uint256",
          "name": "_appointmentID",
          "type": "uint256"
        }
      ],
      "name": "getPatientRecord",
      "outputs": [
        {
          "components": [
            {
              "internalType": "uint256",
              "name": "patientID",
              "type": "uint256"
            },
            {
              "internalType": "uint256",
              "name": "appointmentID",
              "type": "uint256"
            },
            {
              "internalType": "string",
              "name": "symptoms",
              "type": "string"
            },
            {
              "internalType": "string",
              "name": "diagnosis",
              "type": "string"
            },
            {
              "internalType": "bool",
              "name": "test",
              "type": "bool"
            },
            {
              "internalType": "string",
              "name": "prescription",
              "type": "string"
            }
          ],
          "internalType": "struct PatientContract.PatientRecord",
          "name": "",
          "type": "tuple"
        }
      ],
      "stateMutability": "nonpayable",
      "type": "function"
    },
    {
      "inputs": [
        {
          "internalType": "uint256",
          "name": "_patientID",
          "type": "uint256"
        },
        {
          "internalType": "uint256",
          "name": "_appointmentID",
          "type": "uint256"
        },
        {
          "internalType": "string",
          "name": "_symptoms",
          "type": "string"
        },
        {
          "internalType": "string",
          "name": "_diagnosis",
          "type": "string"
        },
        {
          "internalType": "string",
          "name": "_prescription",
          "type": "string"
        }
      ],
      "name": "generateReport",
      "outputs": [],
      "stateMutability": "nonpayable",
      "type": "function"
    },
    {
      "inputs": [
        {
          "internalType": "uint256",
          "name": "_patientID",
          "type": "uint256"
        }
      ],
      "name": "getReport",
      "outputs": [
        {
          "components": [
            {
              "internalType": "uint256",
              "name": "appointmentID",
              "type": "uint256"
            },
            {
              "internalType": "string",
              "name": "symptoms",
              "type": "string"
            },
            {
              "internalType": "string",
              "name": "diagnosis",
              "type": "string"
            },
            {
              "internalType": "string",
              "name": "prescription",
              "type": "string"
            }
          ],
          "internalType": "struct PatientContract.Report",
          "name": "",
          "type": "tuple"
        }
      ],
      "stateMutability": "nonpayable",
      "type": "function"
    }
  ],
  "bytecode": "0x60806040523480156200001157600080fd5b5060405162002bcb38038062002bcb833981016040819052620000349162000082565b6001600081905560028190556003819055600481905560058190556006819055601481905560165560158054600160a060020a031916600160a060020a0392909216919091179055620000b4565b6000602082840312156200009557600080fd5b8151600160a060020a0381168114620000ad57600080fd5b9392505050565b612b0780620000c46000396000f3fe608060405234801561001057600080fd5b5060043610610128576000357c0100000000000000000000000000000000000000000000000000000000900480637d3a6796116100bf5780639be572f61161008e5780639be572f6146102c8578063a5b7d984146102de578063a8bd0465146102f1578063b9fff11b14610311578063bd924b9d1461033157600080fd5b80637d3a67961461022757806385947fc31461024757806390cc9e22146102955780639b8793f1146102b557600080fd5b80635000596b116100fb5780635000596b1461019157806358467dbc146101bc57806368e83662146101df578063796ed3391461021457600080fd5b806310fd56fd1461012d57806329a198441461014257806333ed35a0146101555780634e7f9b1914610168575b600080fd5b61014061013b36600461207e565b610344565b005b610140610150366004612206565b61054c565b61014061016336600461221f565b6105b8565b61017b610176366004612206565b61064e565b604051610188919061230b565b60405180910390f35b6015546101a490600160a060020a031681565b604051600160a060020a039091168152602001610188565b6101cf6101ca366004612376565b6108b8565b6040519015158152602001610188565b6101f26101ed366004612206565b610b30565b6040805182518152602080840151908201529181015190820152606001610188565b6101406102223660046123da565b610bd6565b61023a610235366004612206565b611019565b6040516101889190612479565b6101406102553660046124b5565b6040805160608101825260165480825260208083019485528284019586526000918252601e90529190912090518155905160018201559051600290910155565b6102a86102a3366004612206565b611163565b60405161018891906124d7565b6101406102c336600461252f565b6112c1565b6102d0611469565b604051908152602001610188565b6101406102ec366004612590565b61147f565b6103046102ff366004612206565b611583565b60405161018891906125d5565b61032461031f366004612206565b611bbb565b6040516101889190612700565b61014061033f366004612778565b611dcc565b8a6014548111156103735760405160e560020a62461bcd02815260040161036a90612823565b60405180910390fd5b3360009081526007602052604081206004015460ff16600581111561039a5761039a61285a565b146103ba5760405160e560020a62461bcd02815260040161036a90612873565b6103c38c61054c565b60408051610160810182528d815260208082018e81528284018e9052606083018d9052608083018c905260a083018b905260c083018a905260e08301899052610100830188905261012083018790526101408301869052601754600160a060020a03166000908152601a90925292902081518155915190918291600182019061044c9082612930565b50604082015160028201556060820151600382019061046b9082612930565b50608082015160048201906104809082612930565b5060a082015160058201906104959082612930565b5060c082015160068201906104aa9082612930565b5060e082015160078201906104bf9082612930565b5061010082015160088201906104d59082612930565b5061012082015160098201906104eb9082612930565b50610140820151600a8201906105019082612930565b5050604080518f8152602081018e90527f93c419aa29a1da1a62ab7c9334c6c65a0fa37fe2e3266a78a57142d7e41a84a192500160405180910390a150505050505050505050505050565b60008160405160200161056191815260200190565b60408051808303601f1901815291905280516020909101206017805473ffffffffffffffffffffffffffffffffffffffff19166c01000000000000000000000000909204600160a060020a03169190911790555050565b6040805160808101825285815260208101859052908101839052606081018290526105e28661054c565b601754600160a060020a03166000908152601d60209081526040909120825181559082015182919060018201906106199082612930565b506040820151600282019061062e9082612930565b50606082015160038201906106439082612930565b505050505050505050565b6106796040518060800160405280600081526020016060815260200160608152602001606081525090565b60023360009081526007602052604090206004015460ff1660058111156106a2576106a261285a565b146106c25760405160e560020a62461bcd02815260040161036a906129f6565b6106cb8261054c565b601754600160a060020a03166000908152601d602090815260409182902082516080810190935280548352600181018054919284019161070a906128aa565b80601f0160208091040260200160405190810160405280929190818152602001828054610736906128aa565b80156107835780601f1061075857610100808354040283529160200191610783565b820191906000526020600020905b81548152906001019060200180831161076657829003601f168201915b5050505050815260200160028201805461079c906128aa565b80601f01602080910402602001604051908101604052809291908181526020018280546107c8906128aa565b80156108155780601f106107ea57610100808354040283529160200191610815565b820191906000526020600020905b8154815290600101906020018083116107f857829003601f168201915b5050505050815260200160038201805461082e906128aa565b80601f016020809104026020016040519081016040528092919081815260200182805461085a906128aa565b80156108a75780601f1061087c576101008083540402835291602001916108a7565b820191906000526020600020905b81548152906001019060200180831161088a57829003601f168201915b50505050508152505090505b919050565b600080826040516020016108cc9190612a2d565b60408051601f1981840301815282825280516020918201203360009081526007835283812060a086019094528354855260018401805492965090949392840191610915906128aa565b80601f0160208091040260200160405190810160405280929190818152602001828054610941906128aa565b801561098e5780601f106109635761010080835404028352916020019161098e565b820191906000526020600020905b81548152906001019060200180831161097157829003601f168201915b505050505081526020016002820180546109a7906128aa565b80601f01602080910402602001604051908101604052809291908181526020018280546109d3906128aa565b8015610a205780601f106109f557610100808354040283529160200191610a20565b820191906000526020600020905b815481529060010190602001808311610a0357829003601f168201915b505050918352505060038201546020820152600482015460409091019060ff166005811115610a5157610a5161285a565b6005811115610a6257610a6261285a565b81525050905084604051602001610a799190612a2d565b604051602081830303815290604052805190602001208160400151604051602001610aa49190612a2d565b60405160208183030381529060405280519060200120148015610b135750604080516020810184905201604051602081830303815290604052805190602001208160600151604051602001610afb91815260200190565b60405160208183030381529060405280519060200120145b15610b2357600192505050610b2a565b6000925050505b92915050565b610b5460405180606001604052806000815260200160008152602001600081525090565b60023360009081526007602052604090206004015460ff166005811115610b7d57610b7d61285a565b14610b9d5760405160e560020a62461bcd02815260040161036a906129f6565b506000908152601e6020908152604091829020825160608101845281548152600182015492810192909252600201549181019190915290565b600082604051602001610be99190612a2d565b6040516020818303038152906040528051906020012090506040518060a001604052806000548152602001868152602001858152602001828152602001836005811115610c3857610c3861285a565b905233600090815260076020908152604090912082518155908201516001820190610c639082612930565b5060408201516002820190610c789082612930565b5060608201516003820155608082015160048201805460ff19166001836005811115610ca657610ca661285a565b021790555060009150610cb69050565b826005811115610cc857610cc861285a565b03610d3e57336000908152600860209081526040808320805460ff19166001908117909155815180830183526002548082528185018b8152908652600e909452919093208151815591519092820190610d219082612930565b50506002805491506000610d3483612a62565b9190505550610fc3565b6001826005811115610d5257610d5261285a565b03610dbe57336000908152600960209081526040808320805460ff19166001908117909155815180830183526003548082528185018b8152908652600f909452919093208151815591519092820190610dab9082612930565b50506003805491506000610d3483612a62565b6002826005811115610dd257610dd261285a565b03610e3d57336000908152600a60209081526040808320805460ff191660019081179091558151808301835281548082528185018b81529086526010909452919093208151815591519092820190610e2a9082612930565b50506001805491506000610d3483612a62565b6003826005811115610e5157610e5161285a565b03610ebd57336000908152600b60209081526040808320805460ff19166001908117909155815180830183526004548082528185018b81529086526011909452919093208151815591519092820190610eaa9082612930565b50506004805491506000610d3483612a62565b6004826005811115610ed157610ed161285a565b03610f3d57336000908152600c60209081526040808320805460ff19166001908117909155815180830183526005548082528185018b81529086526012909452919093208151815591519092820190610f2a9082612930565b50506005805491506000610d3483612a62565b6005826005811115610f5157610f5161285a565b03610fc357336000908152600d60209081526040808320805460ff19166001908117909155815180830183526006548082528185018b81529086526013909452919093208151815591519092820190610faa9082612930565b50506006805491506000610fbd83612a62565b91905055505b600080549080610fd283612a62565b91905055507ff8faab18c154b2401da3fa66203c1b688c537f57b092626a296d314df94d9cd06000548660405161100a929190612a7b565b60405180910390a15050505050565b61103d60405180606001604052806000815260200160608152602001600081525090565b3360009081526007602052604081206004015460ff1660058111156110645761106461285a565b146110845760405160e560020a62461bcd02815260040161036a90612873565b61108d8261054c565b601754600160a060020a031660009081526019602090815260408083208151606081019092528054825260018101805492939192918401916110ce906128aa565b80601f01602080910402602001604051908101604052809291908181526020018280546110fa906128aa565b80156111475780601f1061111c57610100808354040283529160200191611147565b820191906000526020600020905b81548152906001019060200180831161112a57829003601f168201915b5050509183525050600291909101546020909101529392505050565b61119060405180608001604052806000815260200160608152602001600081526020016000151581525090565b3360009081526007602052604081206004015460ff1660058111156111b7576111b761285a565b146111d75760405160e560020a62461bcd02815260040161036a90612873565b6111e08261054c565b601754600160a060020a03166000908152601b602090815260409182902082516080810190935280548352600181018054919284019161121f906128aa565b80601f016020809104026020016040519081016040528092919081815260200182805461124b906128aa565b80156112985780601f1061126d57610100808354040283529160200191611298565b820191906000526020600020905b81548152906001019060200180831161127b57829003601f168201915b50505091835250506002820154602082015260039091015460ff16151560409091015292915050565b836014548111156112e75760405160e560020a62461bcd02815260040161036a90612823565b846112f18161054c565b601754600160a060020a03166000908152601b6020526040812054900361135d5760405160e560020a62461bcd02815260206004820152601860248201527f50617469656e7420696e737572616e63652046696c6c65640000000000000000604482015260640161036a565b3360009081526007602052604081206004015460ff1660058111156113845761138461285a565b146113a45760405160e560020a62461bcd02815260040161036a90612873565b6113ad8461054c565b6040805160808101825287815260208082018881528284018890528615156060840152601854600160a060020a03166000908152601b9092529290208151815591519091829160018201906114029082612930565b5060408281015160028301556060909201516003909101805460ff1916911515919091179055517f4f748294e17a5639d8a0897bcbdb74359660addeb6d18bdaef5667542125bc5b906114589088908890612a9c565b60405180910390a150505050505050565b6000600160005461147a9190612abe565b905090565b3360009081526007602052604081206004015460ff1660058111156114a6576114a661285a565b146114c65760405160e560020a62461bcd02815260040161036a90612873565b6114d160145461054c565b6040805160608101825260145481526020808201858152828401859052601754600160a060020a0316600090815260199092529290208151815591519091829160018201906115209082612930565b50604091909101516002909101556014805490600061153e83612a62565b91905055507f6b905965000bb5754f6810e4d8a383a339c59b8ffe0680d4e1af63aca2da215560145484604051611576929190612a7b565b60405180910390a1505050565b6115e060405180610160016040528060008152602001606081526020016000815260200160608152602001606081526020016060815260200160608152602001606081526020016060815260200160608152602001606081525090565b816014548111156116065760405160e560020a62461bcd02815260040161036a90612823565b3360009081526007602052604081206004015460ff16600581111561162d5761162d61285a565b1461164d5760405160e560020a62461bcd02815260040161036a90612873565b6116568361054c565b601754600160a060020a03166000908152601a602090815260409182902082516101608101909352805483526001810180549192840191611696906128aa565b80601f01602080910402602001604051908101604052809291908181526020018280546116c2906128aa565b801561170f5780601f106116e45761010080835404028352916020019161170f565b820191906000526020600020905b8154815290600101906020018083116116f257829003601f168201915b5050505050815260200160028201548152602001600382018054611732906128aa565b80601f016020809104026020016040519081016040528092919081815260200182805461175e906128aa565b80156117ab5780601f10611780576101008083540402835291602001916117ab565b820191906000526020600020905b81548152906001019060200180831161178e57829003601f168201915b505050505081526020016004820180546117c4906128aa565b80601f01602080910402602001604051908101604052809291908181526020018280546117f0906128aa565b801561183d5780601f106118125761010080835404028352916020019161183d565b820191906000526020600020905b81548152906001019060200180831161182057829003601f168201915b50505050508152602001600582018054611856906128aa565b80601f0160208091040260200160405190810160405280929190818152602001828054611882906128aa565b80156118cf5780601f106118a4576101008083540402835291602001916118cf565b820191906000526020600020905b8154815290600101906020018083116118b257829003601f168201915b505050505081526020016006820180546118e8906128aa565b80601f0160208091040260200160405190810160405280929190818152602001828054611914906128aa565b80156119615780601f1061193657610100808354040283529160200191611961565b820191906000526020600020905b81548152906001019060200180831161194457829003601f168201915b5050505050815260200160078201805461197a906128aa565b80601f01602080910402602001604051908101604052809291908181526020018280546119a6906128aa565b80156119f35780601f106119c8576101008083540402835291602001916119f3565b820191906000526020600020905b8154815290600101906020018083116119d657829003601f168201915b50505050508152602001600882018054611a0c906128aa565b80601f0160208091040260200160405190810160405280929190818152602001828054611a38906128aa565b8015611a855780601f10611a5a57610100808354040283529160200191611a85565b820191906000526020600020905b815481529060010190602001808311611a6857829003601f168201915b50505050508152602001600982018054611a9e906128aa565b80601f0160208091040260200160405190810160405280929190818152602001828054611aca906128aa565b8015611b175780601f10611aec57610100808354040283529160200191611b17565b820191906000526020600020905b815481529060010190602001808311611afa57829003601f168201915b50505050508152602001600a82018054611b30906128aa565b80601f0160208091040260200160405190810160405280929190818152602001828054611b5c906128aa565b8015611ba95780601f10611b7e57610100808354040283529160200191611ba9565b820191906000526020600020905b815481529060010190602001808311611b8c57829003601f168201915b50505050508152505091505b50919050565b611bf66040518060c0016040528060008152602001600081526020016060815260200160608152602001600015158152602001606081525090565b60023360009081526007602052604090206004015460ff166005811115611c1f57611c1f61285a565b14611c3f5760405160e560020a62461bcd02815260040161036a906129f6565b611c488261054c565b601754600160a060020a03166000908152601c6020908152604091829020825160c081018452815481526001820154928101929092526002810180549293919291840191611c95906128aa565b80601f0160208091040260200160405190810160405280929190818152602001828054611cc1906128aa565b8015611d0e5780601f10611ce357610100808354040283529160200191611d0e565b820191906000526020600020905b815481529060010190602001808311611cf157829003601f168201915b50505050508152602001600382018054611d27906128aa565b80601f0160208091040260200160405190810160405280929190818152602001828054611d53906128aa565b8015611da05780601f10611d7557610100808354040283529160200191611da0565b820191906000526020600020905b815481529060010190602001808311611d8357829003601f168201915b5050509183525050600482015460ff161515602082015260058201805460409092019161082e906128aa565b6000868152601e602052604090205486908114611e2e5760405160e560020a62461bcd02815260206004820152601a60248201527f4170706f696e746d656e7420646f6573206e6f74206578697374000000000000604482015260640161036a565b86601454811115611e545760405160e560020a62461bcd02815260040161036a90612823565b60023360009081526007602052604090206004015460ff166005811115611e7d57611e7d61285a565b14611e9d5760405160e560020a62461bcd02815260040161036a906129f6565b611ea68761054c565b6040805160c08101825289815260208082018a81528284018a8152606084018a9052881515608085015260a08401889052601754600160a060020a03166000908152601c90935293909120825181559051600182015591519091906002820190611f109082612930565b5060608201516003820190611f259082612930565b50608082015160048201805460ff191691151591909117905560a08201516005820190611f529082612930565b50506040518981527fa2c04eb24898c8eeea47a5c6ccf8254363d9cf531b5c6b88b266a5037617bf4d915060200160405180910390a1611f9588888888876105b8565b60408051898152602081018990527f62fbdf43652bd5d649cef205a29380599c98e2dd8ed628315be51ccbaff2f10d910160405180910390a15050505050505050565b60e060020a634e487b7102600052604160045260246000fd5b600082601f83011261200257600080fd5b813567ffffffffffffffff8082111561201d5761201d611fd8565b604051601f8301601f19908116603f0116810190828211818310171561204557612045611fd8565b8160405283815286602085880101111561205e57600080fd5b836020870160208301376000602085830101528094505050505092915050565b60008060008060008060008060008060006101608c8e0312156120a057600080fd5b8b359a5067ffffffffffffffff8060208e013511156120be57600080fd5b6120ce8e60208f01358f01611ff1565b9a5060408d013599508060608e013511156120e857600080fd5b6120f88e60608f01358f01611ff1565b98508060808e0135111561210b57600080fd5b61211b8e60808f01358f01611ff1565b97508060a08e0135111561212e57600080fd5b61213e8e60a08f01358f01611ff1565b96508060c08e0135111561215157600080fd5b6121618e60c08f01358f01611ff1565b95508060e08e0135111561217457600080fd5b6121848e60e08f01358f01611ff1565b9450806101008e0135111561219857600080fd5b6121a98e6101008f01358f01611ff1565b9350806101208e013511156121bd57600080fd5b6121ce8e6101208f01358f01611ff1565b9250806101408e013511156121e257600080fd5b506121f48d6101408e01358e01611ff1565b90509295989b509295989b9093969950565b60006020828403121561221857600080fd5b5035919050565b600080600080600060a0868803121561223757600080fd5b8535945060208601359350604086013567ffffffffffffffff8082111561225d57600080fd5b61226989838a01611ff1565b9450606088013591508082111561227f57600080fd5b61228b89838a01611ff1565b935060808801359150808211156122a157600080fd5b506122ae88828901611ff1565b9150509295509295909350565b60005b838110156122d65781810151838201526020016122be565b50506000910152565b600081518084526122f78160208601602086016122bb565b601f01601f19169290920160200192915050565b6020815281516020820152600060208301516080604084015261233160a08401826122df565b90506040840151601f198085840301606086015261234f83836122df565b925060608601519150808584030160808601525061236d82826122df565b95945050505050565b6000806040838503121561238957600080fd5b823567ffffffffffffffff808211156123a157600080fd5b6123ad86838701611ff1565b935060208501359150808211156123c357600080fd5b506123d085828601611ff1565b9150509250929050565b600080600080608085870312156123f057600080fd5b843567ffffffffffffffff8082111561240857600080fd5b61241488838901611ff1565b9550602087013591508082111561242a57600080fd5b61243688838901611ff1565b9450604087013591508082111561244c57600080fd5b5061245987828801611ff1565b92505060608501356006811061246e57600080fd5b939692955090935050565b6020815281516020820152600060208301516060604084015261249f60808401826122df565b9050604084015160608401528091505092915050565b600080604083850312156124c857600080fd5b50508035926020909101359150565b602081528151602082015260006020830151608060408401526124fd60a08401826122df565b9050604084015160608401526060840151151560808401528091505092915050565b803580151581146108b357600080fd5b6000806000806080858703121561254557600080fd5b84359350602085013567ffffffffffffffff81111561256357600080fd5b61256f87828801611ff1565b935050604085013591506125856060860161251f565b905092959194509250565b600080604083850312156125a357600080fd5b823567ffffffffffffffff8111156125ba57600080fd5b6125c685828601611ff1565b95602094909401359450505050565b6020815281516020820152600060208301516101608060408501526125fe6101808501836122df565b9150604085015160608501526060850151601f198086850301608087015261262684836122df565b935060808701519150808685030160a087015261264384836122df565b935060a08701519150808685030160c087015261266084836122df565b935060c08701519150808685030160e087015261267d84836122df565b935060e0870151915061010081878603018188015261269c85846122df565b9450808801519250506101208187860301818801526126bb85846122df565b9450808801519250506101408187860301818801526126da85846122df565b9088015187820390920184880152935090506126f683826122df565b9695505050505050565b6020815281516020820152602082015160408201526000604083015160c0606084015261273060e08401826122df565b90506060840151601f198085840301608086015261274e83836122df565b92506080860151151560a086015260a08601519150808584030160c08601525061236d82826122df565b60008060008060008060c0878903121561279157600080fd5b8635955060208701359450604087013567ffffffffffffffff808211156127b757600080fd5b6127c38a838b01611ff1565b955060608901359150808211156127d957600080fd5b6127e58a838b01611ff1565b94506127f360808a0161251f565b935060a089013591508082111561280957600080fd5b5061281689828a01611ff1565b9150509295509295509295565b60208082526016908201527f50617469656e7420646f6573206e6f7420657869737400000000000000000000604082015260600190565b60e060020a634e487b7102600052602160045260246000fd5b6020808252601a908201527f4f6e6c7920726563657074696f6e6973747320616c6c6f776564000000000000604082015260600190565b6002810460018216806128be57607f821691505b602082108103611bb55760e060020a634e487b7102600052602260045260246000fd5b601f82111561292b576000818152602081206020601f860104810160208610156129085750805b6020601f860104820191505b8181101561292757828155600101612914565b5050505b505050565b815167ffffffffffffffff81111561294a5761294a611fd8565b61295e8161295884546128aa565b846128e1565b602080601f831160018114612997576000841561297b5750858301515b60028086026008870290910a6000190419821617865550612927565b600085815260208120601f198616915b828110156129c6578886015182559484019460019091019084016129a7565b50858210156129e657878501516008601f88160260020a60001904191681555b5050505050600202600101905550565b60208082526014908201527f4f6e6c7920646f63746f727320616c6c6f776564000000000000000000000000604082015260600190565b60008251612a3f8184602087016122bb565b9190910192915050565b60e060020a634e487b7102600052601160045260246000fd5b600060018201612a7457612a74612a49565b5060010190565b828152604060208201526000612a9460408301846122df565b949350505050565b604081526000612aaf60408301856122df565b90508260208301529392505050565b81810381811115610b2a57610b2a612a4956fea26469706673582212203ede7dc275e6596a173d6e889ef75b363f832c351b6c0dd51bab2a82ae7f9a5964736f6c63430008130033",
  "immutableReferences": {},
  "source": "// SPDX-License-Identifier: MIT\n\npragma solidity >=0.4.22 <0.9.0;\n\npragma experimental ABIEncoderV2;\n\nimport \"./UserContract.sol\";\n\ncontract PatientContract is UserContract {\n    //a state variable for patientIDs\n    uint256 private patientID;\n\n    //a state variable that stores an instance of the UserContract truffle ,i\n    UserContract public userContract;\n\n    //a state variable for appointments\n    uint256 appointmentID;\n\n    ////////////STATE VARIABLES END //////////////////\n\n    //////////ARRAYS END ////////////////////////////\n\n    constructor(address UserContractAddress) {\n        patientID = 1; //initializes the patientID to 1;\n        appointmentID = 1; //initializes appointmentID to 1\n        userContract = UserContract(UserContractAddress); //initialize the user contract constructor\n    }\n\n    //////////// CONSTRUCTOR END /////////////////////////\n\n    //an address of a patient\n    address private patientAddress;\n\n    //an address to map patient insurances\n    address private PatientInsuranceAddress;\n\n    ///////////////ADDRESSES END////////////////\n\n    //mapping for all patients\n    mapping(address => Patient) private patients;\n\n    //mapping for all patient demographics\n    mapping(address => PatientDemographics) private patientDemographics;\n\n    //mapping for patient insurances\n    mapping(address => PatientInsurance) private patientInsurances;\n\n    //mapping for patient records\n    mapping(address => PatientRecord) private patientRecords;\n\n    //mapping for patient record report\n    mapping(address => Report) private reports;\n\n    //mapping for appointments\n    mapping(uint => Appointment) private appointments;\n\n    ////////////////////MAPPINGS END///////////////////////////////////\n\n    //event to show new patient has been added\n    event PatientAdded(uint _patientID, string _patientName);\n\n    //an event to show patient demographics has been added\n    event PatientDemographicsAdded(uint _patientID, uint _phoneNumber);\n\n    //an event to show patient insurance has been added\n    event PatientInsuranceAdded(\n        string _insuranceName,\n        uint _insuranceCardNumber\n    );\n\n    //an event to show a new patient record has been added\n    event PatientRecordAdded(uint _patientID);\n\n    //an event to show that a patient record report is been added\n    event RecordReportAdded(uint _patientID, uint appointmentID);\n\n    //////////////// EVENTS END//////////////////////////////////////\n\n    //struct for patient basic info\n    struct Patient {\n        uint patientID;\n        string patientName;\n        uint dob;\n    }\n\n    //struct for patient demographics\n    struct PatientDemographics {\n        uint patientID;\n        string gender;\n        uint phoneNumber;\n        string educationLevel;\n        string country;\n        string religion;\n        string tribe;\n        string maritalStatus;\n        string region;\n        string occupation;\n        string residence;\n    }\n\n    //struct for patient insurances\n    struct PatientInsurance {\n        uint patientID;\n        string insuranceName;\n        uint insuranceCardNumber;\n        bool insuranceCardStatus;\n    }\n\n    //struct for diagnosis\n    struct Diagnosis {\n        string code;\n        string name;\n    }\n\n    //struct for prescription\n    struct Prescription {\n        string medicationName; // medication name using RxNorm\n        uint[3] dosage; // dosage amount, unit, and frequency\n        uint duration; // duration of prescription in days\n        uint datePrescribed; // timestamp of when prescription was created\n        bool isFilled; // whether or not the prescription has been filled\n    }\n\n    //struct for report\n    struct Report {\n        uint appointmentID;\n        string symptoms;\n        string diagnosis;\n        string prescription;\n    }\n\n    //struct that defines a new patient record\n    struct PatientRecord {\n        uint patientID;\n        uint appointmentID;\n        string symptoms;\n        string diagnosis;\n        bool test;\n        string prescription;\n    }\n\n    //struct for appointments\n    struct Appointment {\n        uint appointmentID;\n        uint patientID;\n        uint doctorID;\n    }\n\n    ///////////////// STRUCTS END /////////////////////////////////////\n\n    //a modifier to check if the appointment exists\n    modifier doesAppointmentExist(uint _appointmentID) {\n        require(\n            appointments[_appointmentID].appointmentID == _appointmentID,\n            \"Appointment does not exist\"\n        );\n        _;\n    }\n\n    //a modifier to check if patient id exists\n    modifier doesPatientExist(uint _patientID) {\n        require(_patientID <= patientID, \"Patient does not exist\");\n        _;\n    }\n\n    // a modifier to check if the patients' demographics is already filled or not\n    modifier patientDemographicsFilled(uint _patientID) {\n        generatePatientAddress(_patientID);\n        require(\n            patientDemographics[patientAddress].patientID != 0,\n            \"Patient demographics Filled\"\n        );\n        _;\n    }\n\n    // a modifier to check if the patients' demographics is already filled or not\n    modifier patientInsuranceFilled(uint _patientID) {\n        generatePatientAddress(_patientID);\n        require(\n            patientInsurances[patientAddress].patientID != 0,\n            \"Patient insurance Filled\"\n        );\n        _;\n    }\n\n    ///////////// MODIFIERS END /////////////////////////////////\n\n    //function to add new patient\n    function addPatient(\n        string memory _patientName,\n        uint _dob\n    ) public onlyReceptionists {\n        generatePatientAddress(patientID);\n        Patient memory patient = Patient({\n            patientID: patientID,\n            patientName: _patientName,\n            dob: _dob\n        });\n\n        patients[patientAddress] = patient;\n\n        patientID++;\n\n        emit PatientAdded(patientID, _patientName);\n    }\n\n    //function to get patient basic info\n    function getPatient(\n        uint _patientID\n    ) public onlyReceptionists returns (Patient memory) {\n        generatePatientAddress(_patientID);\n\n        Patient memory patient = patients[patientAddress];\n\n        return patient;\n    }\n\n    //function to add patient demographics\n    function addPatientDemographics(\n        uint _patientID,\n        string memory _gender,\n        uint _phoneNumber,\n        string memory _educationLevel,\n        string memory _country,\n        string memory _religion,\n        string memory _tribe,\n        string memory _maritalStatus,\n        string memory _region,\n        string memory _occupation,\n        string memory _residence\n    )\n        public\n        doesPatientExist(_patientID)\n        onlyReceptionists\n    {\n        generatePatientAddress(_patientID);\n        PatientDemographics memory patientDemographic = PatientDemographics({\n            patientID: _patientID,\n            gender: _gender,\n            phoneNumber: _phoneNumber,\n            educationLevel: _educationLevel,\n            country: _country,\n            religion: _religion,\n            tribe: _tribe,\n            maritalStatus: _maritalStatus,\n            region: _region,\n            occupation: _occupation,\n            residence: _residence\n        });\n\n        patientDemographics[patientAddress] = patientDemographic;\n\n        emit PatientDemographicsAdded(_patientID, _phoneNumber);\n    }\n\n    //function to get patient demographics from its mapping\n    function getPatientDemographics(\n        uint _patientID\n    )\n        public\n        doesPatientExist(_patientID)\n        onlyReceptionists\n        returns (PatientDemographics memory)\n    {\n        generatePatientAddress(_patientID);\n\n        return patientDemographics[patientAddress];\n    }\n\n    //function to add patient insurance\n    function addPatientInsurance(\n        uint _patientID,\n        string memory _insuranceName,\n        uint _insuranceCardNumber,\n        bool _insuranceCardStatus\n    )\n        public\n        doesPatientExist(_patientID)\n        patientInsuranceFilled(_patientID)\n        onlyReceptionists\n    {\n        generatePatientAddress(_insuranceCardNumber);\n        PatientInsurance memory patientInsurance = PatientInsurance({\n            patientID: _patientID,\n            insuranceName: _insuranceName,\n            insuranceCardNumber: _insuranceCardNumber,\n            insuranceCardStatus: _insuranceCardStatus\n        });\n\n        patientInsurances[PatientInsuranceAddress] = patientInsurance;\n\n        emit PatientInsuranceAdded(_insuranceName, _insuranceCardNumber);\n    }\n\n    //function to get patient health insurance\n    function getPatientInsurance(\n        uint _patientID\n    ) public onlyReceptionists returns (PatientInsurance memory) {\n        generatePatientAddress(_patientID);\n\n        return patientInsurances[patientAddress];\n    }\n\n    //function to automatically generate patient address\n    function generatePatientAddress(uint _patientID) public {\n        bytes32 patientIDHash = keccak256(abi.encodePacked(_patientID));\n        patientAddress = address(bytes20(patientIDHash));\n    }\n\n    //function to generate an appointment\n    function addAppointment(\n        uint _doctorID,\n        uint _patientID\n    ) public {\n        Appointment memory appointment = Appointment({\n            appointmentID: appointmentID,\n            doctorID: _doctorID,\n            patientID: _patientID\n        });\n\n        appointments[appointmentID] = appointment;\n    }\n\n    //function to view appointment\n    function viewAppointment(\n        uint _appointmentID\n    ) public view onlyDoctors returns (Appointment memory) {\n        return appointments[_appointmentID];\n    }\n\n    //function to add a new patient record\n    function addPatientRecord(\n        uint _patientID,\n        uint _appointmentID,\n        string memory _symptoms,\n        string memory _diagnosis,\n        bool _test,\n        string memory _prescription\n    )\n        public\n        doesAppointmentExist(_patientID)\n        doesPatientExist(_patientID)\n        onlyDoctors\n    {\n        generatePatientAddress(_appointmentID);\n        patientRecords[patientAddress] = PatientRecord({\n            patientID: _patientID,\n            appointmentID: _appointmentID,\n            symptoms: _symptoms,\n            diagnosis: _diagnosis,\n            test: _test,\n            prescription: _prescription\n        });\n\n        emit PatientRecordAdded(_patientID);\n\n        generateReport(\n            _patientID,\n            _appointmentID,\n            _symptoms,\n            _diagnosis,\n            _prescription\n        );\n\n        emit RecordReportAdded(_patientID, _appointmentID);\n    }\n\n    //function to get a patient record from the mapping\n    function getPatientRecord(\n        uint _appointmentID\n    ) public onlyDoctors returns (PatientRecord memory) {\n        generatePatientAddress(_appointmentID);\n        return patientRecords[patientAddress];\n    }\n\n    //function to automatically generate patient record report\n    function generateReport(\n        uint _patientID,\n        uint _appointmentID,\n        string memory _symptoms,\n        string memory _diagnosis,\n        string memory _prescription\n    ) public {\n        Report memory report = Report({\n            appointmentID: _appointmentID,\n            symptoms: _symptoms,\n            diagnosis: _diagnosis,\n            prescription: _prescription\n        });\n\n        generatePatientAddress(_patientID);\n\n        reports[patientAddress] = report;\n    }\n\n    //function to get patient record report from the mapping\n    function getReport(\n        uint _patientID\n    ) public onlyDoctors returns (Report memory) {\n        generatePatientAddress(_patientID);\n\n        return reports[patientAddress];\n    }\n\n    ////////////////////////FUNCTIONS END /////////////////////////////////\n}\n",
  "sourcePath": "C:\\Users\\\\Desktop\\last\\src\\truffle\\contracts\\PatientContract.sol",
  "compiler": {
    "name": "solc",
    "version": "0.8.19+commit.7dd6d404.Emscripten.clang"
  },
  "schemaVersion": "3.4.13",
  "updatedAt": "2023-07-29T10:55:23.003Z",
  "networkType": "ethereum",
  "devdoc": {
    "kind": "dev",
    "methods": {},
    "version": 1
  },
  "userdoc": {
    "kind": "user",
    "methods": {},
    "version": 1
  }
}