{
  "contractName": "PatientContract",
  "abi": [
    {
      "inputs": [
        {
          "internalType": "address",
          "name": "UserContractAddress",
          "type": "address"
        }
      ],
      "stateMutability": "nonpayable",
      "type": "constructor"
    },
    {
      "anonymous": false,
      "inputs": [
        {
          "indexed": false,
          "internalType": "uint256",
          "name": "_userID",
          "type": "uint256"
        }
      ],
      "name": "LoggedIn",
      "type": "event"
    },
    {
      "anonymous": false,
      "inputs": [
        {
          "indexed": false,
          "internalType": "uint256",
          "name": "_patientID",
          "type": "uint256"
        },
        {
          "indexed": false,
          "internalType": "string",
          "name": "_patientName",
          "type": "string"
        }
      ],
      "name": "PatientAdded",
      "type": "event"
    },
    {
      "anonymous": false,
      "inputs": [
        {
          "indexed": false,
          "internalType": "uint256",
          "name": "_patientID",
          "type": "uint256"
        },
        {
          "indexed": false,
          "internalType": "uint256",
          "name": "_phoneNumber",
          "type": "uint256"
        }
      ],
      "name": "PatientDemographicsAdded",
      "type": "event"
    },
    {
      "anonymous": false,
      "inputs": [
        {
          "indexed": false,
          "internalType": "string",
          "name": "_insuranceName",
          "type": "string"
        },
        {
          "indexed": false,
          "internalType": "uint256",
          "name": "_insuranceCardNumber",
          "type": "uint256"
        }
      ],
      "name": "PatientInsuranceAdded",
      "type": "event"
    },
    {
      "anonymous": false,
      "inputs": [
        {
          "indexed": false,
          "internalType": "uint256",
          "name": "_patientID",
          "type": "uint256"
        }
      ],
      "name": "PatientRecordAdded",
      "type": "event"
    },
    {
      "anonymous": false,
      "inputs": [
        {
          "indexed": false,
          "internalType": "uint256",
          "name": "_patientID",
          "type": "uint256"
        },
        {
          "indexed": false,
          "internalType": "uint256",
          "name": "appointmentID",
          "type": "uint256"
        }
      ],
      "name": "RecordReportAdded",
      "type": "event"
    },
    {
      "anonymous": false,
      "inputs": [
        {
          "indexed": false,
          "internalType": "uint256",
          "name": "userID",
          "type": "uint256"
        },
        {
          "indexed": false,
          "internalType": "string",
          "name": "_userName",
          "type": "string"
        }
      ],
      "name": "RegistrationSuccessful",
      "type": "event"
    },
    {
      "anonymous": false,
      "inputs": [
        {
          "indexed": false,
          "internalType": "uint256",
          "name": "userID",
          "type": "uint256"
        },
        {
          "indexed": false,
          "internalType": "string",
          "name": "userName",
          "type": "string"
        },
        {
          "indexed": false,
          "internalType": "string",
          "name": "email",
          "type": "string"
        },
        {
          "indexed": false,
          "internalType": "string",
          "name": "role",
          "type": "string"
        }
      ],
      "name": "UserDisplay",
      "type": "event"
    },
    {
      "inputs": [
        {
          "internalType": "string",
          "name": "_email",
          "type": "string"
        },
        {
          "internalType": "string",
          "name": "_password",
          "type": "string"
        }
      ],
      "name": "login",
      "outputs": [
        {
          "internalType": "bool",
          "name": "",
          "type": "bool"
        }
      ],
      "stateMutability": "view",
      "type": "function",
      "constant": true
    },
    {
      "inputs": [
        {
          "internalType": "string",
          "name": "_userName",
          "type": "string"
        },
        {
          "internalType": "string",
          "name": "_email",
          "type": "string"
        },
        {
          "internalType": "string",
          "name": "_password",
          "type": "string"
        },
        {
          "internalType": "enum UserContract.Role",
          "name": "_role",
          "type": "uint8"
        }
      ],
      "name": "register",
      "outputs": [],
      "stateMutability": "nonpayable",
      "type": "function"
    },
    {
      "inputs": [],
      "name": "userContract",
      "outputs": [
        {
          "internalType": "contract UserContract",
          "name": "",
          "type": "address"
        }
      ],
      "stateMutability": "view",
      "type": "function",
      "constant": true
    },
    {
      "inputs": [
        {
          "internalType": "string",
          "name": "_patientName",
          "type": "string"
        },
        {
          "internalType": "uint256",
          "name": "_dob",
          "type": "uint256"
        }
      ],
      "name": "addPatient",
      "outputs": [],
      "stateMutability": "nonpayable",
      "type": "function"
    },
    {
      "inputs": [
        {
          "internalType": "uint256",
          "name": "_patientID",
          "type": "uint256"
        }
      ],
      "name": "getPatient",
      "outputs": [
        {
          "components": [
            {
              "internalType": "uint256",
              "name": "patientID",
              "type": "uint256"
            },
            {
              "internalType": "string",
              "name": "patientName",
              "type": "string"
            },
            {
              "internalType": "uint256",
              "name": "dob",
              "type": "uint256"
            }
          ],
          "internalType": "struct PatientContract.Patient",
          "name": "",
          "type": "tuple"
        }
      ],
      "stateMutability": "nonpayable",
      "type": "function"
    },
    {
      "inputs": [
        {
          "internalType": "uint256",
          "name": "_patientID",
          "type": "uint256"
        },
        {
          "internalType": "string",
          "name": "_gender",
          "type": "string"
        },
        {
          "internalType": "uint256",
          "name": "_phoneNumber",
          "type": "uint256"
        },
        {
          "internalType": "string",
          "name": "_educationLevel",
          "type": "string"
        },
        {
          "internalType": "string",
          "name": "_country",
          "type": "string"
        },
        {
          "internalType": "string",
          "name": "_religion",
          "type": "string"
        },
        {
          "internalType": "string",
          "name": "_tribe",
          "type": "string"
        },
        {
          "internalType": "string",
          "name": "_maritalStatus",
          "type": "string"
        },
        {
          "internalType": "string",
          "name": "_region",
          "type": "string"
        },
        {
          "internalType": "string",
          "name": "_occupation",
          "type": "string"
        },
        {
          "internalType": "string",
          "name": "_residence",
          "type": "string"
        }
      ],
      "name": "addPatientDemographics",
      "outputs": [],
      "stateMutability": "nonpayable",
      "type": "function"
    },
    {
      "inputs": [
        {
          "internalType": "uint256",
          "name": "_patientID",
          "type": "uint256"
        }
      ],
      "name": "getPatientDemographics",
      "outputs": [
        {
          "components": [
            {
              "internalType": "uint256",
              "name": "patientID",
              "type": "uint256"
            },
            {
              "internalType": "string",
              "name": "gender",
              "type": "string"
            },
            {
              "internalType": "uint256",
              "name": "phoneNumber",
              "type": "uint256"
            },
            {
              "internalType": "string",
              "name": "educationLevel",
              "type": "string"
            },
            {
              "internalType": "string",
              "name": "country",
              "type": "string"
            },
            {
              "internalType": "string",
              "name": "religion",
              "type": "string"
            },
            {
              "internalType": "string",
              "name": "tribe",
              "type": "string"
            },
            {
              "internalType": "string",
              "name": "maritalStatus",
              "type": "string"
            },
            {
              "internalType": "string",
              "name": "region",
              "type": "string"
            },
            {
              "internalType": "string",
              "name": "occupation",
              "type": "string"
            },
            {
              "internalType": "string",
              "name": "residence",
              "type": "string"
            }
          ],
          "internalType": "struct PatientContract.PatientDemographics",
          "name": "",
          "type": "tuple"
        }
      ],
      "stateMutability": "nonpayable",
      "type": "function"
    },
    {
      "inputs": [
        {
          "internalType": "uint256",
          "name": "_patientID",
          "type": "uint256"
        },
        {
          "internalType": "string",
          "name": "_insuranceName",
          "type": "string"
        },
        {
          "internalType": "uint256",
          "name": "_insuranceCardNumber",
          "type": "uint256"
        },
        {
          "internalType": "bool",
          "name": "_insuranceCardStatus",
          "type": "bool"
        }
      ],
      "name": "addPatientInsurance",
      "outputs": [],
      "stateMutability": "nonpayable",
      "type": "function"
    },
    {
      "inputs": [
        {
          "internalType": "uint256",
          "name": "_patientID",
          "type": "uint256"
        }
      ],
      "name": "getPatientInsurance",
      "outputs": [
        {
          "components": [
            {
              "internalType": "uint256",
              "name": "patientID",
              "type": "uint256"
            },
            {
              "internalType": "string",
              "name": "insuranceName",
              "type": "string"
            },
            {
              "internalType": "uint256",
              "name": "insuranceCardNumber",
              "type": "uint256"
            },
            {
              "internalType": "bool",
              "name": "insuranceCardStatus",
              "type": "bool"
            }
          ],
          "internalType": "struct PatientContract.PatientInsurance",
          "name": "",
          "type": "tuple"
        }
      ],
      "stateMutability": "nonpayable",
      "type": "function"
    },
    {
      "inputs": [
        {
          "internalType": "uint256",
          "name": "_patientID",
          "type": "uint256"
        }
      ],
      "name": "generatePatientAddress",
      "outputs": [],
      "stateMutability": "nonpayable",
      "type": "function"
    },
    {
      "inputs": [
        {
          "internalType": "uint256",
          "name": "_doctorID",
          "type": "uint256"
        },
        {
          "internalType": "uint256",
          "name": "_patientID",
          "type": "uint256"
        }
      ],
      "name": "addAppointment",
      "outputs": [],
      "stateMutability": "nonpayable",
      "type": "function"
    },
    {
      "inputs": [
        {
          "internalType": "uint256",
          "name": "_appointmentID",
          "type": "uint256"
        }
      ],
      "name": "viewAppointment",
      "outputs": [
        {
          "components": [
            {
              "internalType": "uint256",
              "name": "appointmentID",
              "type": "uint256"
            },
            {
              "internalType": "uint256",
              "name": "patientID",
              "type": "uint256"
            },
            {
              "internalType": "uint256",
              "name": "doctorID",
              "type": "uint256"
            }
          ],
          "internalType": "struct PatientContract.Appointment",
          "name": "",
          "type": "tuple"
        }
      ],
      "stateMutability": "view",
      "type": "function",
      "constant": true
    },
    {
      "inputs": [
        {
          "internalType": "uint256",
          "name": "_patientID",
          "type": "uint256"
        },
        {
          "internalType": "uint256",
          "name": "_appointmentID",
          "type": "uint256"
        },
        {
          "internalType": "string[]",
          "name": "_symptoms",
          "type": "string[]"
        },
        {
          "components": [
            {
              "internalType": "string",
              "name": "code",
              "type": "string"
            },
            {
              "internalType": "string",
              "name": "name",
              "type": "string"
            }
          ],
          "internalType": "struct PatientContract.Diagnosis",
          "name": "_diagnosis",
          "type": "tuple"
        },
        {
          "internalType": "bool",
          "name": "_test",
          "type": "bool"
        },
        {
          "components": [
            {
              "internalType": "string",
              "name": "medicationName",
              "type": "string"
            },
            {
              "internalType": "uint256[3]",
              "name": "dosage",
              "type": "uint256[3]"
            },
            {
              "internalType": "uint256",
              "name": "duration",
              "type": "uint256"
            },
            {
              "internalType": "uint256",
              "name": "datePrescribed",
              "type": "uint256"
            },
            {
              "internalType": "bool",
              "name": "isFilled",
              "type": "bool"
            }
          ],
          "internalType": "struct PatientContract.Prescription",
          "name": "_prescription",
          "type": "tuple"
        },
        {
          "internalType": "bool",
          "name": "_medication",
          "type": "bool"
        }
      ],
      "name": "addPatientRecord",
      "outputs": [],
      "stateMutability": "nonpayable",
      "type": "function"
    },
    {
      "inputs": [
        {
          "internalType": "uint256",
          "name": "_appointmentID",
          "type": "uint256"
        }
      ],
      "name": "getPatientRecord",
      "outputs": [
        {
          "components": [
            {
              "internalType": "uint256",
              "name": "patientID",
              "type": "uint256"
            },
            {
              "internalType": "uint256",
              "name": "appointmentID",
              "type": "uint256"
            },
            {
              "internalType": "string[]",
              "name": "symptoms",
              "type": "string[]"
            },
            {
              "components": [
                {
                  "internalType": "string",
                  "name": "code",
                  "type": "string"
                },
                {
                  "internalType": "string",
                  "name": "name",
                  "type": "string"
                }
              ],
              "internalType": "struct PatientContract.Diagnosis",
              "name": "diagnosis",
              "type": "tuple"
            },
            {
              "internalType": "bool",
              "name": "test",
              "type": "bool"
            },
            {
              "components": [
                {
                  "internalType": "string",
                  "name": "medicationName",
                  "type": "string"
                },
                {
                  "internalType": "uint256[3]",
                  "name": "dosage",
                  "type": "uint256[3]"
                },
                {
                  "internalType": "uint256",
                  "name": "duration",
                  "type": "uint256"
                },
                {
                  "internalType": "uint256",
                  "name": "datePrescribed",
                  "type": "uint256"
                },
                {
                  "internalType": "bool",
                  "name": "isFilled",
                  "type": "bool"
                }
              ],
              "internalType": "struct PatientContract.Prescription",
              "name": "prescription",
              "type": "tuple"
            },
            {
              "internalType": "bool",
              "name": "medication",
              "type": "bool"
            }
          ],
          "internalType": "struct PatientContract.PatientRecord",
          "name": "",
          "type": "tuple"
        }
      ],
      "stateMutability": "nonpayable",
      "type": "function"
    },
    {
      "inputs": [
        {
          "internalType": "uint256",
          "name": "_patientID",
          "type": "uint256"
        },
        {
          "internalType": "uint256",
          "name": "_appointmentID",
          "type": "uint256"
        },
        {
          "internalType": "string[]",
          "name": "_symptoms",
          "type": "string[]"
        },
        {
          "components": [
            {
              "internalType": "string",
              "name": "code",
              "type": "string"
            },
            {
              "internalType": "string",
              "name": "name",
              "type": "string"
            }
          ],
          "internalType": "struct PatientContract.Diagnosis",
          "name": "_diagnosis",
          "type": "tuple"
        },
        {
          "components": [
            {
              "internalType": "string",
              "name": "medicationName",
              "type": "string"
            },
            {
              "internalType": "uint256[3]",
              "name": "dosage",
              "type": "uint256[3]"
            },
            {
              "internalType": "uint256",
              "name": "duration",
              "type": "uint256"
            },
            {
              "internalType": "uint256",
              "name": "datePrescribed",
              "type": "uint256"
            },
            {
              "internalType": "bool",
              "name": "isFilled",
              "type": "bool"
            }
          ],
          "internalType": "struct PatientContract.Prescription",
          "name": "_prescription",
          "type": "tuple"
        }
      ],
      "name": "generateReport",
      "outputs": [],
      "stateMutability": "nonpayable",
      "type": "function"
    },
    {
      "inputs": [
        {
          "internalType": "uint256",
          "name": "_patientID",
          "type": "uint256"
        }
      ],
      "name": "getReport",
      "outputs": [
        {
          "components": [
            {
              "internalType": "uint256",
              "name": "appointmentID",
              "type": "uint256"
            },
            {
              "internalType": "string[]",
              "name": "symptoms",
              "type": "string[]"
            },
            {
              "components": [
                {
                  "internalType": "string",
                  "name": "code",
                  "type": "string"
                },
                {
                  "internalType": "string",
                  "name": "name",
                  "type": "string"
                }
              ],
              "internalType": "struct PatientContract.Diagnosis",
              "name": "diagnosis",
              "type": "tuple"
            },
            {
              "components": [
                {
                  "internalType": "string",
                  "name": "medicationName",
                  "type": "string"
                },
                {
                  "internalType": "uint256[3]",
                  "name": "dosage",
                  "type": "uint256[3]"
                },
                {
                  "internalType": "uint256",
                  "name": "duration",
                  "type": "uint256"
                },
                {
                  "internalType": "uint256",
                  "name": "datePrescribed",
                  "type": "uint256"
                },
                {
                  "internalType": "bool",
                  "name": "isFilled",
                  "type": "bool"
                }
              ],
              "internalType": "struct PatientContract.Prescription",
              "name": "prescription",
              "type": "tuple"
            }
          ],
          "internalType": "struct PatientContract.Report",
          "name": "",
          "type": "tuple"
        }
      ],
      "stateMutability": "nonpayable",
      "type": "function"
    }
  ],
  "bytecode": "0x60806040523480156200001157600080fd5b50604051620034ff380380620034ff833981016040819052620000349162000082565b6001600081905560028190556003819055600481905560058190556006819055601481905560165560158054600160a060020a031916600160a060020a0392909216919091179055620000b4565b6000602082840312156200009557600080fd5b8151600160a060020a0381168114620000ad57600080fd5b9392505050565b61343b80620000c46000396000f3fe608060405234801561001057600080fd5b506004361061011d576000357c0100000000000000000000000000000000000000000000000000000000900480637d3a6796116100b4578063a5b7d98411610083578063a5b7d98414610282578063a8bd046514610295578063b9fff11b146102b5578063caa8bf99146102d557600080fd5b80637d3a67961461021c57806385947fc31461023c57806390cc9e221461024f5780639b8793f11461026f57600080fd5b806353b70a30116100f057806353b70a301461019e57806358467dbc146101b157806368e83662146101d4578063796ed3391461020957600080fd5b806310fd56fd1461012257806329a19844146101375780634e7f9b191461014a5780635000596b14610173575b600080fd5b6101356101303660046126d1565b6102e8565b005b610135610145366004612859565b6104f0565b61015d610158366004612859565b61055c565b60405161016a91906129be565b60405180910390f35b60155461018690600160a060020a031681565b604051600160a060020a03909116815260200161016a565b6101356101ac366004612c0d565b6108fa565b6101c46101bf366004612ca9565b6109f6565b604051901515815260200161016a565b6101e76101e2366004612859565b610c6e565b604080518251815260208084015190820152918101519082015260600161016a565b610135610217366004612d0d565b610d14565b61022f61022a366004612859565b611157565b60405161016a9190612dac565b61013561024a366004612de8565b6112a1565b61026261025d366004612859565b611328565b60405161016a9190612e0a565b61013561027d366004612e52565b611486565b610135610290366004612eb3565b61162e565b6102a86102a3366004612859565b611732565b60405161016a9190612ef8565b6102c86102c3366004612859565b611d6a565b60405161016a9190613023565b6101356102e33660046130b5565b612138565b8a6014548111156103175760405160e560020a62461bcd02815260040161030e90613172565b60405180910390fd5b3360009081526007602052604081206004015460ff16600581111561033e5761033e6131a9565b1461035e5760405160e560020a62461bcd02815260040161030e906131c2565b6103678c6104f0565b60408051610160810182528d815260208082018e81528284018e9052606083018d9052608083018c905260a083018b905260c083018a905260e08301899052610100830188905261012083018790526101408301869052601754600160a060020a03166000908152601a9092529290208151815591519091829160018201906103f0908261327f565b50604082015160028201556060820151600382019061040f908261327f565b5060808201516004820190610424908261327f565b5060a08201516005820190610439908261327f565b5060c0820151600682019061044e908261327f565b5060e08201516007820190610463908261327f565b506101008201516008820190610479908261327f565b50610120820151600982019061048f908261327f565b50610140820151600a8201906104a5908261327f565b5050604080518f8152602081018e90527f93c419aa29a1da1a62ab7c9334c6c65a0fa37fe2e3266a78a57142d7e41a84a192500160405180910390a150505050505050505050505050565b60008160405160200161050591815260200190565b60408051808303601f1901815291905280516020909101206017805473ffffffffffffffffffffffffffffffffffffffff19166c01000000000000000000000000909204600160a060020a03169190911790555050565b6105646123d1565b60023360009081526007602052604090206004015460ff16600581111561058d5761058d6131a9565b146105ad5760405160e560020a62461bcd02815260040161030e90613345565b6105b6826104f0565b601754600160a060020a03166000908152601d602090815260408083208151608081018352815481526001820180548451818702810187019095528085529195929486810194939192919084015b828210156106b0578382906000526020600020018054610623906131f9565b80601f016020809104026020016040519081016040528092919081815260200182805461064f906131f9565b801561069c5780601f106106715761010080835404028352916020019161069c565b820191906000526020600020905b81548152906001019060200180831161067f57829003601f168201915b505050505081526020019060010190610604565b505050508152602001600282016040518060400160405290816000820180546106d8906131f9565b80601f0160208091040260200160405190810160405280929190818152602001828054610704906131f9565b80156107515780601f1061072657610100808354040283529160200191610751565b820191906000526020600020905b81548152906001019060200180831161073457829003601f168201915b5050505050815260200160018201805461076a906131f9565b80601f0160208091040260200160405190810160405280929190818152602001828054610796906131f9565b80156107e35780601f106107b8576101008083540402835291602001916107e3565b820191906000526020600020905b8154815290600101906020018083116107c657829003601f168201915b5050505050815250508152602001600482016040518060a0016040529081600082018054610810906131f9565b80601f016020809104026020016040519081016040528092919081815260200182805461083c906131f9565b80156108895780601f1061085e57610100808354040283529160200191610889565b820191906000526020600020905b81548152906001019060200180831161086c57829003601f168201915b505050918352505060408051606081019182905260209092019190600184019060039082845b8154815260200190600101908083116108af575050509183525050600482015460208201526005820154604082015260069091015460ff16151560609091015290525090505b919050565b604080516080810182528581526020810185905290810183905260608101829052610924866104f0565b601754600160a060020a03166000908152601d6020908152604090912082518155818301518051849361095e926001850192910190612419565b506040820151805160028301908190610977908261327f565b506020820151600182019061098c908261327f565b50505060608201518051600483019081906109a7908261327f565b5060208201516109bd906001830190600361246f565b5060408201516004820155606082015160058201556080909101516006909101805460ff19169115159190911790555050505050505050565b60008082604051602001610a0a919061337c565b60408051601f1981840301815282825280516020918201203360009081526007835283812060a086019094528354855260018401805492965090949392840191610a53906131f9565b80601f0160208091040260200160405190810160405280929190818152602001828054610a7f906131f9565b8015610acc5780601f10610aa157610100808354040283529160200191610acc565b820191906000526020600020905b815481529060010190602001808311610aaf57829003601f168201915b50505050508152602001600282018054610ae5906131f9565b80601f0160208091040260200160405190810160405280929190818152602001828054610b11906131f9565b8015610b5e5780601f10610b3357610100808354040283529160200191610b5e565b820191906000526020600020905b815481529060010190602001808311610b4157829003601f168201915b505050918352505060038201546020820152600482015460409091019060ff166005811115610b8f57610b8f6131a9565b6005811115610ba057610ba06131a9565b81525050905084604051602001610bb7919061337c565b604051602081830303815290604052805190602001208160400151604051602001610be2919061337c565b60405160208183030381529060405280519060200120148015610c515750604080516020810184905201604051602081830303815290604052805190602001208160600151604051602001610c3991815260200190565b60405160208183030381529060405280519060200120145b15610c6157600192505050610c68565b6000925050505b92915050565b610c9260405180606001604052806000815260200160008152602001600081525090565b60023360009081526007602052604090206004015460ff166005811115610cbb57610cbb6131a9565b14610cdb5760405160e560020a62461bcd02815260040161030e90613345565b506000908152601e6020908152604091829020825160608101845281548152600182015492810192909252600201549181019190915290565b600082604051602001610d27919061337c565b6040516020818303038152906040528051906020012090506040518060a001604052806000548152602001868152602001858152602001828152602001836005811115610d7657610d766131a9565b905233600090815260076020908152604090912082518155908201516001820190610da1908261327f565b5060408201516002820190610db6908261327f565b5060608201516003820155608082015160048201805460ff19166001836005811115610de457610de46131a9565b021790555060009150610df49050565b826005811115610e0657610e066131a9565b03610e7c57336000908152600860209081526040808320805460ff19166001908117909155815180830183526002548082528185018b8152908652600e909452919093208151815591519092820190610e5f908261327f565b50506002805491506000610e7283613398565b9190505550611101565b6001826005811115610e9057610e906131a9565b03610efc57336000908152600960209081526040808320805460ff19166001908117909155815180830183526003548082528185018b8152908652600f909452919093208151815591519092820190610ee9908261327f565b50506003805491506000610e7283613398565b6002826005811115610f1057610f106131a9565b03610f7b57336000908152600a60209081526040808320805460ff191660019081179091558151808301835281548082528185018b81529086526010909452919093208151815591519092820190610f68908261327f565b50506001805491506000610e7283613398565b6003826005811115610f8f57610f8f6131a9565b03610ffb57336000908152600b60209081526040808320805460ff19166001908117909155815180830183526004548082528185018b81529086526011909452919093208151815591519092820190610fe8908261327f565b50506004805491506000610e7283613398565b600482600581111561100f5761100f6131a9565b0361107b57336000908152600c60209081526040808320805460ff19166001908117909155815180830183526005548082528185018b81529086526012909452919093208151815591519092820190611068908261327f565b50506005805491506000610e7283613398565b600582600581111561108f5761108f6131a9565b0361110157336000908152600d60209081526040808320805460ff19166001908117909155815180830183526006548082528185018b815290865260139094529190932081518155915190928201906110e8908261327f565b505060068054915060006110fb83613398565b91905055505b60008054908061111083613398565b91905055507ff8faab18c154b2401da3fa66203c1b688c537f57b092626a296d314df94d9cd0600054866040516111489291906133c2565b60405180910390a15050505050565b61117b60405180606001604052806000815260200160608152602001600081525090565b3360009081526007602052604081206004015460ff1660058111156111a2576111a26131a9565b146111c25760405160e560020a62461bcd02815260040161030e906131c2565b6111cb826104f0565b601754600160a060020a0316600090815260196020908152604080832081516060810190925280548252600181018054929391929184019161120c906131f9565b80601f0160208091040260200160405190810160405280929190818152602001828054611238906131f9565b80156112855780601f1061125a57610100808354040283529160200191611285565b820191906000526020600020905b81548152906001019060200180831161126857829003601f168201915b5050509183525050600291909101546020909101529392505050565b3360009081526007602052604081206004015460ff1660058111156112c8576112c86131a9565b146112e85760405160e560020a62461bcd02815260040161030e906131c2565b6040805160608101825260165480825260208083019485528284019586526000918252601e90529190912090518155905160018201559051600290910155565b61135560405180608001604052806000815260200160608152602001600081526020016000151581525090565b3360009081526007602052604081206004015460ff16600581111561137c5761137c6131a9565b1461139c5760405160e560020a62461bcd02815260040161030e906131c2565b6113a5826104f0565b601754600160a060020a03166000908152601b60209081526040918290208251608081019093528054835260018101805491928401916113e4906131f9565b80601f0160208091040260200160405190810160405280929190818152602001828054611410906131f9565b801561145d5780601f106114325761010080835404028352916020019161145d565b820191906000526020600020905b81548152906001019060200180831161144057829003601f168201915b50505091835250506002820154602082015260039091015460ff16151560409091015292915050565b836014548111156114ac5760405160e560020a62461bcd02815260040161030e90613172565b846114b6816104f0565b601754600160a060020a03166000908152601b602052604081205490036115225760405160e560020a62461bcd02815260206004820152601860248201527f50617469656e7420696e737572616e63652046696c6c65640000000000000000604482015260640161030e565b3360009081526007602052604081206004015460ff166005811115611549576115496131a9565b146115695760405160e560020a62461bcd02815260040161030e906131c2565b611572846104f0565b6040805160808101825287815260208082018881528284018890528615156060840152601854600160a060020a03166000908152601b9092529290208151815591519091829160018201906115c7908261327f565b5060408281015160028301556060909201516003909101805460ff1916911515919091179055517f4f748294e17a5639d8a0897bcbdb74359660addeb6d18bdaef5667542125bc5b9061161d90889088906133e3565b60405180910390a150505050505050565b3360009081526007602052604081206004015460ff166005811115611655576116556131a9565b146116755760405160e560020a62461bcd02815260040161030e906131c2565b6116806014546104f0565b6040805160608101825260145481526020808201858152828401859052601754600160a060020a0316600090815260199092529290208151815591519091829160018201906116cf908261327f565b5060409190910151600290910155601480549060006116ed83613398565b91905055507f6b905965000bb5754f6810e4d8a383a339c59b8ffe0680d4e1af63aca2da2155601454846040516117259291906133c2565b60405180910390a1505050565b61178f60405180610160016040528060008152602001606081526020016000815260200160608152602001606081526020016060815260200160608152602001606081526020016060815260200160608152602001606081525090565b816014548111156117b55760405160e560020a62461bcd02815260040161030e90613172565b3360009081526007602052604081206004015460ff1660058111156117dc576117dc6131a9565b146117fc5760405160e560020a62461bcd02815260040161030e906131c2565b611805836104f0565b601754600160a060020a03166000908152601a602090815260409182902082516101608101909352805483526001810180549192840191611845906131f9565b80601f0160208091040260200160405190810160405280929190818152602001828054611871906131f9565b80156118be5780601f10611893576101008083540402835291602001916118be565b820191906000526020600020905b8154815290600101906020018083116118a157829003601f168201915b50505050508152602001600282015481526020016003820180546118e1906131f9565b80601f016020809104026020016040519081016040528092919081815260200182805461190d906131f9565b801561195a5780601f1061192f5761010080835404028352916020019161195a565b820191906000526020600020905b81548152906001019060200180831161193d57829003601f168201915b50505050508152602001600482018054611973906131f9565b80601f016020809104026020016040519081016040528092919081815260200182805461199f906131f9565b80156119ec5780601f106119c1576101008083540402835291602001916119ec565b820191906000526020600020905b8154815290600101906020018083116119cf57829003601f168201915b50505050508152602001600582018054611a05906131f9565b80601f0160208091040260200160405190810160405280929190818152602001828054611a31906131f9565b8015611a7e5780601f10611a5357610100808354040283529160200191611a7e565b820191906000526020600020905b815481529060010190602001808311611a6157829003601f168201915b50505050508152602001600682018054611a97906131f9565b80601f0160208091040260200160405190810160405280929190818152602001828054611ac3906131f9565b8015611b105780601f10611ae557610100808354040283529160200191611b10565b820191906000526020600020905b815481529060010190602001808311611af357829003601f168201915b50505050508152602001600782018054611b29906131f9565b80601f0160208091040260200160405190810160405280929190818152602001828054611b55906131f9565b8015611ba25780601f10611b7757610100808354040283529160200191611ba2565b820191906000526020600020905b815481529060010190602001808311611b8557829003601f168201915b50505050508152602001600882018054611bbb906131f9565b80601f0160208091040260200160405190810160405280929190818152602001828054611be7906131f9565b8015611c345780601f10611c0957610100808354040283529160200191611c34565b820191906000526020600020905b815481529060010190602001808311611c1757829003601f168201915b50505050508152602001600982018054611c4d906131f9565b80601f0160208091040260200160405190810160405280929190818152602001828054611c79906131f9565b8015611cc65780601f10611c9b57610100808354040283529160200191611cc6565b820191906000526020600020905b815481529060010190602001808311611ca957829003601f168201915b50505050508152602001600a82018054611cdf906131f9565b80601f0160208091040260200160405190810160405280929190818152602001828054611d0b906131f9565b8015611d585780601f10611d2d57610100808354040283529160200191611d58565b820191906000526020600020905b815481529060010190602001808311611d3b57829003601f168201915b50505050508152505091505b50919050565b611d726124a9565b60023360009081526007602052604090206004015460ff166005811115611d9b57611d9b6131a9565b14611dbb5760405160e560020a62461bcd02815260040161030e90613345565b611dc4826104f0565b601754600160a060020a03166000908152601c60209081526040808320815160e08101835281548152600182015481850152600282018054845181870281018701865281815292969395948701949293919290919084015b82821015611ec8578382906000526020600020018054611e3b906131f9565b80601f0160208091040260200160405190810160405280929190818152602001828054611e67906131f9565b8015611eb45780601f10611e8957610100808354040283529160200191611eb4565b820191906000526020600020905b815481529060010190602001808311611e9757829003601f168201915b505050505081526020019060010190611e1c565b50505050815260200160038201604051806040016040529081600082018054611ef0906131f9565b80601f0160208091040260200160405190810160405280929190818152602001828054611f1c906131f9565b8015611f695780601f10611f3e57610100808354040283529160200191611f69565b820191906000526020600020905b815481529060010190602001808311611f4c57829003601f168201915b50505050508152602001600182018054611f82906131f9565b80601f0160208091040260200160405190810160405280929190818152602001828054611fae906131f9565b8015611ffb5780601f10611fd057610100808354040283529160200191611ffb565b820191906000526020600020905b815481529060010190602001808311611fde57829003601f168201915b505050919092525050508152600582015460ff16151560208201526040805160a081018252600684018054929093019290918290829061203a906131f9565b80601f0160208091040260200160405190810160405280929190818152602001828054612066906131f9565b80156120b35780601f10612088576101008083540402835291602001916120b3565b820191906000526020600020905b81548152906001019060200180831161209657829003601f168201915b505050918352505060408051606081019182905260209092019190600184019060039082845b8154815260200190600101908083116120d957505050918352505060048201546020808301919091526005830154604083015260069092015460ff9081161515606090920191909152918352600d939093015416151591015292915050565b6000878152601e60205260409020548790811461219a5760405160e560020a62461bcd02815260206004820152601a60248201527f4170706f696e746d656e7420646f6573206e6f74206578697374000000000000604482015260640161030e565b876014548111156121c05760405160e560020a62461bcd02815260040161030e90613172565b60023360009081526007602052604090206004015460ff1660058111156121e9576121e96131a9565b146122095760405160e560020a62461bcd02815260040161030e90613345565b612212886104f0565b6040805160e0810182528a815260208082018b81528284018b8152606084018b9052891515608085015260a0840189905287151560c0850152601754600160a060020a03166000908152601c8452949094208351815590516001820155925180519293926122869260028501920190612419565b50606082015180516003830190819061229f908261327f565b50602082015160018201906122b4908261327f565b505050608082015160058201805460ff191691151591909117905560a08201518051600683019081906122e7908261327f565b5060208201516122fd906001830190600361246f565b506040828101516004830155606083015160058301556080909201516006909101805491151560ff1992831617905560c09390930151600d90920180549215159290931691909117909155517fa2c04eb24898c8eeea47a5c6ccf8254363d9cf531b5c6b88b266a5037617bf4d90612378908b815260200190565b60405180910390a161238d89898989886108fa565b604080518a8152602081018a90527f62fbdf43652bd5d649cef205a29380599c98e2dd8ed628315be51ccbaff2f10d910160405180910390a1505050505050505050565b60405180608001604052806000815260200160608152602001612407604051806040016040528060608152602001606081525090565b8152602001612414612507565b905290565b82805482825590600052602060002090810192821561245f579160200282015b8281111561245f578251829061244f908261327f565b5091602001919060010190612439565b5061246b92915061253e565b5090565b826003810192821561249d579160200282015b8281111561249d578251825591602001919060010190612482565b5061246b92915061255b565b6040518060e001604052806000815260200160008152602001606081526020016124e6604051806040016040528060608152602001606081525090565b8152600060208201526040016124fa612507565b8152600060209091015290565b6040518060a0016040528060608152602001612521612570565b815260200160008152602001600081526020016000151581525090565b8082111561246b576000612552828261258e565b5060010161253e565b5b8082111561246b576000815560010161255c565b60405180606001604052806003906020820280368337509192915050565b50805461259a906131f9565b6000825580601f106125aa575050565b601f0160209004906000526020600020908101906125c8919061255b565b50565b60e060020a634e487b7102600052604160045260246000fd5b60405160a0810167ffffffffffffffff81118282101715612607576126076125cb565b60405290565b6040516060810167ffffffffffffffff81118282101715612607576126076125cb565b604051601f8201601f1916810167ffffffffffffffff81118282101715612659576126596125cb565b604052919050565b600082601f83011261267257600080fd5b813567ffffffffffffffff81111561268c5761268c6125cb565b61269f601f8201601f1916602001612630565b8181528460208386010111156126b457600080fd5b816020850160208301376000918101602001919091529392505050565b60008060008060008060008060008060006101608c8e0312156126f357600080fd5b8b359a5067ffffffffffffffff8060208e0135111561271157600080fd5b6127218e60208f01358f01612661565b9a5060408d013599508060608e0135111561273b57600080fd5b61274b8e60608f01358f01612661565b98508060808e0135111561275e57600080fd5b61276e8e60808f01358f01612661565b97508060a08e0135111561278157600080fd5b6127918e60a08f01358f01612661565b96508060c08e013511156127a457600080fd5b6127b48e60c08f01358f01612661565b95508060e08e013511156127c757600080fd5b6127d78e60e08f01358f01612661565b9450806101008e013511156127eb57600080fd5b6127fc8e6101008f01358f01612661565b9350806101208e0135111561281057600080fd5b6128218e6101208f01358f01612661565b9250806101408e0135111561283557600080fd5b506128478d6101408e01358e01612661565b90509295989b509295989b9093969950565b60006020828403121561286b57600080fd5b5035919050565b60005b8381101561288d578181015183820152602001612875565b50506000910152565b600081518084526128ae816020860160208601612872565b601f01601f19169290920160200192915050565b6000828251808552602080860195508081830284010181860160005b8481101561290c57601f198684030189526128fa838351612896565b988401989250908301906001016128de565b5090979650505050505050565b600081516040845261292e6040850182612896565b9050602083015184820360208601526129478282612896565b95945050505050565b6000815160e0845261296560e0850182612896565b905060208084015181860160005b600381101561299057825182529183019190830190600101612973565b5050505060408301516080850152606083015160a08501526080830151151560c08501528091505092915050565b602081528151602082015260006020830151608060408401526129e460a08401826128c2565b90506040840151601f1980858403016060860152612a028383612919565b92506060860151915080858403016080860152506129478282612950565b600082601f830112612a3157600080fd5b8135602067ffffffffffffffff80831115612a4e57612a4e6125cb565b818302612a5c838201612630565b9384528581018301938381019088861115612a7657600080fd5b84880192505b85831015612ab257823584811115612a945760008081fd5b612aa28a87838c0101612661565b8352509184019190840190612a7c565b98975050505050505050565b600060408284031215612ad057600080fd5b6040516040810167ffffffffffffffff8282108183111715612af457612af46125cb565b816040528293508435915080821115612b0c57600080fd5b612b1886838701612661565b83526020850135915080821115612b2e57600080fd5b50612b3b85828601612661565b6020830152505092915050565b803580151581146108f557600080fd5b600060e08284031215612b6a57600080fd5b612b726125e4565b9050813567ffffffffffffffff811115612b8b57600080fd5b612b9784828501612661565b825250602083603f840112612bab57600080fd5b612bb361260d565b806080850186811115612bc557600080fd5b8386015b81811015612be05780358452928401928401612bc9565b50928401525035604082015260a08201356060820152612c0260c08301612b48565b608082015292915050565b600080600080600060a08688031215612c2557600080fd5b8535945060208601359350604086013567ffffffffffffffff80821115612c4b57600080fd5b612c5789838a01612a20565b94506060880135915080821115612c6d57600080fd5b612c7989838a01612abe565b93506080880135915080821115612c8f57600080fd5b50612c9c88828901612b58565b9150509295509295909350565b60008060408385031215612cbc57600080fd5b823567ffffffffffffffff80821115612cd457600080fd5b612ce086838701612661565b93506020850135915080821115612cf657600080fd5b50612d0385828601612661565b9150509250929050565b60008060008060808587031215612d2357600080fd5b843567ffffffffffffffff80821115612d3b57600080fd5b612d4788838901612661565b95506020870135915080821115612d5d57600080fd5b612d6988838901612661565b94506040870135915080821115612d7f57600080fd5b50612d8c87828801612661565b925050606085013560068110612da157600080fd5b939692955090935050565b60208152815160208201526000602083015160606040840152612dd26080840182612896565b9050604084015160608401528091505092915050565b60008060408385031215612dfb57600080fd5b50508035926020909101359150565b60208152815160208201526000602083015160806040840152612e3060a0840182612896565b9050604084015160608401526060840151151560808401528091505092915050565b60008060008060808587031215612e6857600080fd5b84359350602085013567ffffffffffffffff811115612e8657600080fd5b612e9287828801612661565b93505060408501359150612ea860608601612b48565b905092959194509250565b60008060408385031215612ec657600080fd5b823567ffffffffffffffff811115612edd57600080fd5b612ee985828601612661565b95602094909401359450505050565b602081528151602082015260006020830151610160806040850152612f21610180850183612896565b9150604085015160608501526060850151601f1980868503016080870152612f498483612896565b935060808701519150808685030160a0870152612f668483612896565b935060a08701519150808685030160c0870152612f838483612896565b935060c08701519150808685030160e0870152612fa08483612896565b935060e08701519150610100818786030181880152612fbf8584612896565b945080880151925050610120818786030181880152612fde8584612896565b945080880151925050610140818786030181880152612ffd8584612896565b9088015187820390920184880152935090506130198382612896565b9695505050505050565b6020815281516020820152602082015160408201526000604083015160e060608401526130546101008401826128c2565b90506060840151601f19808584030160808601526130728383612919565b92506080860151151560a086015260a08601519150808584030160c08601525061309c8282612950565b91505060c0840151151560e08401528091505092915050565b600080600080600080600060e0888a0312156130d057600080fd5b8735965060208801359550604088013567ffffffffffffffff808211156130f657600080fd5b6131028b838c01612a20565b965060608a013591508082111561311857600080fd5b6131248b838c01612abe565b955061313260808b01612b48565b945060a08a013591508082111561314857600080fd5b506131558a828b01612b58565b92505061316460c08901612b48565b905092959891949750929550565b60208082526016908201527f50617469656e7420646f6573206e6f7420657869737400000000000000000000604082015260600190565b60e060020a634e487b7102600052602160045260246000fd5b6020808252601a908201527f4f6e6c7920726563657074696f6e6973747320616c6c6f776564000000000000604082015260600190565b60028104600182168061320d57607f821691505b602082108103611d645760e060020a634e487b7102600052602260045260246000fd5b601f82111561327a576000818152602081206020601f860104810160208610156132575750805b6020601f860104820191505b8181101561327657828155600101613263565b5050505b505050565b815167ffffffffffffffff811115613299576132996125cb565b6132ad816132a784546131f9565b84613230565b602080601f8311600181146132e657600084156132ca5750858301515b60028086026008870290910a6000190419821617865550613276565b600085815260208120601f198616915b82811015613315578886015182559484019460019091019084016132f6565b508582101561333557878501516008601f88160260020a60001904191681555b5050505050600202600101905550565b60208082526014908201527f4f6e6c7920646f63746f727320616c6c6f776564000000000000000000000000604082015260600190565b6000825161338e818460208701612872565b9190910192915050565b6000600182016133bb5760e060020a634e487b7102600052601160045260246000fd5b5060010190565b8281526040602082015260006133db6040830184612896565b949350505050565b6040815260006133f66040830185612896565b9050826020830152939250505056fea2646970667358221220b1e9b0d16b4e22c69bff087a87d7991c72d38ced1273b72993b388e6ff5f4af264736f6c63430008130033",
  "immutableReferences": {},
  "source": "// SPDX-License-Identifier: MIT\n\npragma solidity >=0.4.22 <0.9.0;\n\npragma experimental ABIEncoderV2;\n\nimport \"./UserContract.sol\";\n\ncontract PatientContract is UserContract {\n    //a state variable for patientIDs\n    uint256 private patientID;\n\n    //a state variable that stores an instance of the UserContract\n    UserContract public userContract;\n\n    //a state variable for appointments\n    uint256 appointmentID;\n\n    ////////////STATE VARIABLES END //////////////////\n\n    //////////ARRAYS END ////////////////////////////\n\n    constructor(address UserContractAddress) {\n        patientID = 1; //initializes the patientID to 1;\n        appointmentID = 1; //initializes appointmentID to 1\n        userContract = UserContract(UserContractAddress); //initialize the user contract constructor\n    }\n\n    //////////// CONSTRUCTOR END /////////////////////////\n\n    //an address of a patient\n    address private patientAddress;\n\n    //an address to map patient insurances\n    address private PatientInsuranceAddress;\n\n    ///////////////ADDRESSES END////////////////\n\n    //mapping for all patients\n    mapping(address => Patient) private patients;\n\n    //mapping for all patient demographics\n    mapping(address => PatientDemographics) private patientDemographics;\n\n    //mapping for patient insurances\n    mapping(address => PatientInsurance) private patientInsurances;\n\n    //mapping for patient records\n    mapping(address => PatientRecord) private patientRecords;\n\n    //mapping for patient record report\n    mapping(address => Report) private reports;\n\n    //mapping for appointments\n    mapping(uint => Appointment) private appointments;\n\n    ////////////////////MAPPINGS END///////////////////////////////////\n\n    //event to show new patient has been added\n    event PatientAdded(uint _patientID, string _patientName);\n\n    //an event to show patient demographics has been added\n    event PatientDemographicsAdded(uint _patientID, uint _phoneNumber);\n\n    //an event to show patient insurance has been added\n    event PatientInsuranceAdded(\n        string _insuranceName,\n        uint _insuranceCardNumber\n    );\n\n    //an event to show a new patient record has been added\n    event PatientRecordAdded(uint _patientID);\n\n    //an event to show that a patient record report is been added\n    event RecordReportAdded(uint _patientID, uint appointmentID);\n\n    //////////////// EVENTS END//////////////////////////////////////\n\n    //struct for patient basic info\n    struct Patient {\n        uint patientID;\n        string patientName;\n        uint dob;\n    }\n\n    //struct for patient demographics\n    struct PatientDemographics {\n        uint patientID;\n        string gender;\n        uint phoneNumber;\n        string educationLevel;\n        string country;\n        string religion;\n        string tribe;\n        string maritalStatus;\n        string region;\n        string occupation;\n        string residence;\n    }\n\n    //struct for patient insurances\n    struct PatientInsurance {\n        uint patientID;\n        string insuranceName;\n        uint insuranceCardNumber;\n        bool insuranceCardStatus;\n    }\n\n    //struct for diagnosis\n    struct Diagnosis {\n        string code;\n        string name;\n    }\n\n    //struct for prescription\n    struct Prescription {\n        string medicationName; // medication name using RxNorm\n        uint[3] dosage; // dosage amount, unit, and frequency\n        uint duration; // duration of prescription in days\n        uint datePrescribed; // timestamp of when prescription was created\n        bool isFilled; // whether or not the prescription has been filled\n    }\n\n    //struct for report\n    struct Report {\n        uint appointmentID;\n        string[] symptoms;\n        Diagnosis diagnosis;\n        Prescription prescription;\n    }\n\n    //struct that defines a new patient record\n    struct PatientRecord {\n        uint patientID;\n        uint appointmentID;\n        string[] symptoms;\n        Diagnosis diagnosis;\n        bool test;\n        Prescription prescription;\n        bool medication;\n    }\n\n    //struct for appointments\n    struct Appointment {\n        uint appointmentID;\n        uint patientID;\n        uint doctorID;\n    }\n\n    ///////////////// STRUCTS END /////////////////////////////////////\n\n    //a modifier to check if the appointment exists\n    modifier doesAppointmentExist(uint _appointmentID) {\n        require(\n            appointments[_appointmentID].appointmentID == _appointmentID,\n            \"Appointment does not exist\"\n        );\n        _;\n    }\n\n    //a modifier to check if patient id exists\n    modifier doesPatientExist(uint _patientID) {\n        require(_patientID <= patientID, \"Patient does not exist\");\n        _;\n    }\n\n    // a modifier to check if the patients' demographics is already filled or not\n    modifier patientDemographicsFilled(uint _patientID) {\n        generatePatientAddress(_patientID);\n        require(\n            patientDemographics[patientAddress].patientID != 0,\n            \"Patient demographics Filled\"\n        );\n        _;\n    }\n\n    // a modifier to check if the patients' demographics is already filled or not\n    modifier patientInsuranceFilled(uint _patientID) {\n        generatePatientAddress(_patientID);\n        require(\n            patientInsurances[patientAddress].patientID != 0,\n            \"Patient insurance Filled\"\n        );\n        _;\n    }\n\n    ///////////// MODIFIERS END /////////////////////////////////\n\n    //function to add new patient\n    function addPatient(\n        string memory _patientName,\n        uint _dob\n    ) public onlyReceptionists {\n        generatePatientAddress(patientID);\n        Patient memory patient = Patient({\n            patientID: patientID,\n            patientName: _patientName,\n            dob: _dob\n        });\n\n        patients[patientAddress] = patient;\n\n        patientID++;\n\n        emit PatientAdded(patientID, _patientName);\n    }\n\n    //function to get patient basic info\n    function getPatient(\n        uint _patientID\n    ) public onlyReceptionists returns (Patient memory) {\n        generatePatientAddress(_patientID);\n\n        Patient memory patient = patients[patientAddress];\n\n        return patient;\n    }\n\n    //function to add patient demographics\n    function addPatientDemographics(\n        uint _patientID,\n        string memory _gender,\n        uint _phoneNumber,\n        string memory _educationLevel,\n        string memory _country,\n        string memory _religion,\n        string memory _tribe,\n        string memory _maritalStatus,\n        string memory _region,\n        string memory _occupation,\n        string memory _residence\n    )\n        public\n        doesPatientExist(_patientID)\n        onlyReceptionists\n    {\n        generatePatientAddress(_patientID);\n        PatientDemographics memory patientDemographic = PatientDemographics({\n            patientID: _patientID,\n            gender: _gender,\n            phoneNumber: _phoneNumber,\n            educationLevel: _educationLevel,\n            country: _country,\n            religion: _religion,\n            tribe: _tribe,\n            maritalStatus: _maritalStatus,\n            region: _region,\n            occupation: _occupation,\n            residence: _residence\n        });\n\n        patientDemographics[patientAddress] = patientDemographic;\n\n        emit PatientDemographicsAdded(_patientID, _phoneNumber);\n    }\n\n    //function to get patient demographics from its mapping\n    function getPatientDemographics(\n        uint _patientID\n    )\n        public\n        doesPatientExist(_patientID)\n        onlyReceptionists\n        returns (PatientDemographics memory)\n    {\n        generatePatientAddress(_patientID);\n\n        return patientDemographics[patientAddress];\n    }\n\n    //function to add patient insurance\n    function addPatientInsurance(\n        uint _patientID,\n        string memory _insuranceName,\n        uint _insuranceCardNumber,\n        bool _insuranceCardStatus\n    )\n        public\n        doesPatientExist(_patientID)\n        patientInsuranceFilled(_patientID)\n        onlyReceptionists\n    {\n        generatePatientAddress(_insuranceCardNumber);\n        PatientInsurance memory patientInsurance = PatientInsurance({\n            patientID: _patientID,\n            insuranceName: _insuranceName,\n            insuranceCardNumber: _insuranceCardNumber,\n            insuranceCardStatus: _insuranceCardStatus\n        });\n\n        patientInsurances[PatientInsuranceAddress] = patientInsurance;\n\n        emit PatientInsuranceAdded(_insuranceName, _insuranceCardNumber);\n    }\n\n    //function to get patient health insurance\n    function getPatientInsurance(\n        uint _patientID\n    ) public onlyReceptionists returns (PatientInsurance memory) {\n        generatePatientAddress(_patientID);\n\n        return patientInsurances[patientAddress];\n    }\n\n    //function to automatically generate patient address\n    function generatePatientAddress(uint _patientID) public {\n        bytes32 patientIDHash = keccak256(abi.encodePacked(_patientID));\n        patientAddress = address(bytes20(patientIDHash));\n    }\n\n    //function to generate an appointment\n    function addAppointment(\n        uint _doctorID,\n        uint _patientID\n    ) public onlyReceptionists {\n        Appointment memory appointment = Appointment({\n            appointmentID: appointmentID,\n            doctorID: _doctorID,\n            patientID: _patientID\n        });\n\n        appointments[appointmentID] = appointment;\n    }\n\n    //function to view appointment\n    function viewAppointment(\n        uint _appointmentID\n    ) public view onlyDoctors returns (Appointment memory) {\n        return appointments[_appointmentID];\n    }\n\n    //function to add a new patient record\n    function addPatientRecord(\n        uint _patientID,\n        uint _appointmentID,\n        string[] memory _symptoms,\n        Diagnosis memory _diagnosis,\n        bool _test,\n        Prescription memory _prescription,\n        bool _medication\n    )\n        public\n        doesAppointmentExist(_patientID)\n        doesPatientExist(_patientID)\n        onlyDoctors\n    {\n        generatePatientAddress(_appointmentID);\n        patientRecords[patientAddress] = PatientRecord({\n            patientID: _patientID,\n            appointmentID: _appointmentID,\n            symptoms: _symptoms,\n            diagnosis: _diagnosis,\n            test: _test,\n            prescription: _prescription,\n            medication: _medication\n        });\n\n        emit PatientRecordAdded(_patientID);\n\n        generateReport(\n            _patientID,\n            _appointmentID,\n            _symptoms,\n            _diagnosis,\n            _prescription\n        );\n\n        emit RecordReportAdded(_patientID, _appointmentID);\n    }\n\n    //function to get a patient record from the mapping\n    function getPatientRecord(\n        uint _appointmentID\n    ) public onlyDoctors returns (PatientRecord memory) {\n        generatePatientAddress(_appointmentID);\n        return patientRecords[patientAddress];\n    }\n\n    //function to automatically generate patient record report\n    function generateReport(\n        uint _patientID,\n        uint _appointmentID,\n        string[] memory _symptoms,\n        Diagnosis memory _diagnosis,\n        Prescription memory _prescription\n    ) public {\n        Report memory report = Report({\n            appointmentID: _appointmentID,\n            symptoms: _symptoms,\n            diagnosis: _diagnosis,\n            prescription: _prescription\n        });\n\n        generatePatientAddress(_patientID);\n\n        reports[patientAddress] = report;\n    }\n\n    //function to get patient record report from the mapping\n    function getReport(\n        uint _patientID\n    ) public onlyDoctors returns (Report memory) {\n        generatePatientAddress(_patientID);\n\n        return reports[patientAddress];\n    }\n\n    ////////////////////////FUNCTIONS END /////////////////////////////////\n}\n",
  "sourcePath": "C:\\Users\\\\Desktop\\last\\src\\truffle\\contracts\\PatientContract.sol",
  "compiler": {
    "name": "solc",
    "version": "0.8.19+commit.7dd6d404.Emscripten.clang"
  },
  "schemaVersion": "3.4.13",
  "updatedAt": "2023-07-27T13:05:29.003Z",
  "networkType": "ethereum",
  "devdoc": {
    "kind": "dev",
    "methods": {},
    "version": 1
  },
  "userdoc": {
    "kind": "user",
    "methods": {},
    "version": 1
  }
}