{
  "contractName": "UserContract",
  "abi": [
    {
      "inputs": [],
      "stateMutability": "nonpayable",
      "type": "constructor"
    },
    {
      "anonymous": false,
      "inputs": [
        {
          "indexed": false,
          "internalType": "uint256",
          "name": "_userID",
          "type": "uint256"
        }
      ],
      "name": "LoggedIn",
      "type": "event"
    },
    {
      "anonymous": false,
      "inputs": [
        {
          "indexed": false,
          "internalType": "uint256",
          "name": "userID",
          "type": "uint256"
        },
        {
          "indexed": false,
          "internalType": "string",
          "name": "_userName",
          "type": "string"
        }
      ],
      "name": "RegistrationSuccessful",
      "type": "event"
    },
    {
      "anonymous": false,
      "inputs": [
        {
          "indexed": false,
          "internalType": "uint256",
          "name": "userID",
          "type": "uint256"
        },
        {
          "indexed": false,
          "internalType": "string",
          "name": "userName",
          "type": "string"
        },
        {
          "indexed": false,
          "internalType": "string",
          "name": "email",
          "type": "string"
        },
        {
          "indexed": false,
          "internalType": "string",
          "name": "role",
          "type": "string"
        }
      ],
      "name": "UserDisplay",
      "type": "event"
    },
    {
      "inputs": [
        {
          "internalType": "string",
          "name": "_userName",
          "type": "string"
        },
        {
          "internalType": "string",
          "name": "_email",
          "type": "string"
        },
        {
          "internalType": "string",
          "name": "_password",
          "type": "string"
        },
        {
          "internalType": "enum UserContract.Role",
          "name": "_role",
          "type": "uint8"
        }
      ],
      "name": "register",
      "outputs": [],
      "stateMutability": "nonpayable",
      "type": "function"
    },
    {
      "inputs": [
        {
          "internalType": "string",
          "name": "_email",
          "type": "string"
        },
        {
          "internalType": "string",
          "name": "_password",
          "type": "string"
        }
      ],
      "name": "login",
      "outputs": [
        {
          "internalType": "bool",
          "name": "",
          "type": "bool"
        }
      ],
      "stateMutability": "view",
      "type": "function",
      "constant": true
    },
    {
      "inputs": [],
      "name": "getTotalUsers",
      "outputs": [
        {
          "internalType": "uint256",
          "name": "",
          "type": "uint256"
        }
      ],
      "stateMutability": "view",
      "type": "function",
      "constant": true
    }
  ],
  "bytecode": "0x608060405234801561001057600080fd5b50600160008190556002819055600381905560048190556005819055600655610b8f8061003e6000396000f3fe608060405234801561001057600080fd5b506004361061005d577c0100000000000000000000000000000000000000000000000000000000600035046358467dbc8114610062578063796ed3391461008a5780639be572f61461009f575b600080fd5b61007561007036600461082c565b6100b5565b60405190151581526020015b60405180910390f35b61009d610098366004610890565b61032d565b005b6100a7610770565b604051908152602001610081565b600080826040516020016100c99190610953565b60408051601f1981840301815282825280516020918201203360009081526007835283812060a0860190945283548552600184018054929650909493928401916101129061096f565b80601f016020809104026020016040519081016040528092919081815260200182805461013e9061096f565b801561018b5780601f106101605761010080835404028352916020019161018b565b820191906000526020600020905b81548152906001019060200180831161016e57829003601f168201915b505050505081526020016002820180546101a49061096f565b80601f01602080910402602001604051908101604052809291908181526020018280546101d09061096f565b801561021d5780601f106101f25761010080835404028352916020019161021d565b820191906000526020600020905b81548152906001019060200180831161020057829003601f168201915b505050918352505060038201546020820152600482015460409091019060ff16600581111561024e5761024e6109ac565b600581111561025f5761025f6109ac565b815250509050846040516020016102769190610953565b6040516020818303038152906040528051906020012081604001516040516020016102a19190610953565b6040516020818303038152906040528051906020012014801561031057506040805160208101849052016040516020818303038152906040528051906020012081606001516040516020016102f891815260200190565b60405160208183030381529060405280519060200120145b1561032057600192505050610327565b6000925050505b92915050565b6000826040516020016103409190610953565b6040516020818303038152906040528051906020012090506040518060a00160405280600054815260200186815260200185815260200182815260200183600581111561038f5761038f6109ac565b9052336000908152600760209081526040909120825181559082015160018201906103ba9082610a14565b50604082015160028201906103cf9082610a14565b5060608201516003820155608082015160048201805460ff191660018360058111156103fd576103fd6109ac565b02179055506000915061040d9050565b82600581111561041f5761041f6109ac565b0361049557336000908152600860209081526040808320805460ff19166001908117909155815180830183526002548082528185018b8152908652600e9094529190932081518155915190928201906104789082610a14565b5050600280549150600061048b83610af3565b919050555061071a565b60018260058111156104a9576104a96109ac565b0361051557336000908152600960209081526040808320805460ff19166001908117909155815180830183526003548082528185018b8152908652600f9094529190932081518155915190928201906105029082610a14565b5050600380549150600061048b83610af3565b6002826005811115610529576105296109ac565b0361059457336000908152600a60209081526040808320805460ff191660019081179091558151808301835281548082528185018b815290865260109094529190932081518155915190928201906105819082610a14565b5050600180549150600061048b83610af3565b60038260058111156105a8576105a86109ac565b0361061457336000908152600b60209081526040808320805460ff19166001908117909155815180830183526004548082528185018b815290865260119094529190932081518155915190928201906106019082610a14565b5050600480549150600061048b83610af3565b6004826005811115610628576106286109ac565b0361069457336000908152600c60209081526040808320805460ff19166001908117909155815180830183526005548082528185018b815290865260129094529190932081518155915190928201906106819082610a14565b5050600580549150600061048b83610af3565b60058260058111156106a8576106a86109ac565b0361071a57336000908152600d60209081526040808320805460ff19166001908117909155815180830183526006548082528185018b815290865260139094529190932081518155915190928201906107019082610a14565b5050600680549150600061071483610af3565b91905055505b60008054908061072983610af3565b91905055507ff8faab18c154b2401da3fa66203c1b688c537f57b092626a296d314df94d9cd060005486604051610761929190610b0c565b60405180910390a15050505050565b600060016000546107819190610b46565b905090565b60e060020a634e487b7102600052604160045260246000fd5b600082601f8301126107b057600080fd5b813567ffffffffffffffff808211156107cb576107cb610786565b604051601f8301601f19908116603f011681019082821181831017156107f3576107f3610786565b8160405283815286602085880101111561080c57600080fd5b836020870160208301376000602085830101528094505050505092915050565b6000806040838503121561083f57600080fd5b823567ffffffffffffffff8082111561085757600080fd5b6108638683870161079f565b9350602085013591508082111561087957600080fd5b506108868582860161079f565b9150509250929050565b600080600080608085870312156108a657600080fd5b843567ffffffffffffffff808211156108be57600080fd5b6108ca8883890161079f565b955060208701359150808211156108e057600080fd5b6108ec8883890161079f565b9450604087013591508082111561090257600080fd5b5061090f8782880161079f565b92505060608501356006811061092457600080fd5b939692955090935050565b60005b8381101561094a578181015183820152602001610932565b50506000910152565b6000825161096581846020870161092f565b9190910192915050565b60028104600182168061098357607f821691505b6020821081036109a65760e060020a634e487b7102600052602260045260246000fd5b50919050565b60e060020a634e487b7102600052602160045260246000fd5b601f821115610a0f576000818152602081206020601f860104810160208610156109ec5750805b6020601f860104820191505b81811015610a0b578281556001016109f8565b5050505b505050565b815167ffffffffffffffff811115610a2e57610a2e610786565b610a4281610a3c845461096f565b846109c5565b602080601f831160018114610a7b5760008415610a5f5750858301515b60028086026008870290910a6000190419821617865550610a0b565b600085815260208120601f198616915b82811015610aaa57888601518255948401946001909101908401610a8b565b5085821015610aca57878501516008601f88160260020a60001904191681555b5050505050600202600101905550565b60e060020a634e487b7102600052601160045260246000fd5b600060018201610b0557610b05610ada565b5060010190565b8281526040602082015260008251806040840152610b3181606085016020870161092f565b601f01601f1916919091016060019392505050565b8181038181111561032757610327610ada56fea264697066735822122090cec9d70a8d454eb688661986c9fe2b6ae6b13991c18b7df6b46c35ba5004b164736f6c63430008130033",
  "immutableReferences": {},
  "source": "// SPDX-License-Identifier: MIT\n\npragma solidity >=0.4.22 <0.9.0;\n\npragma experimental ABIEncoderV2;\n\ncontract UserContract {\n    //state variable for userIDs\n    uint256 userID;\n\n    //state variables for doctors Ids\n    uint256 doctorID;\n\n    //state variables for receptionists Ids\n    uint256 receptionistID;\n\n    //state variables for nurses Ids\n    uint256 nurseID;\n\n    //state variables for laboratory technicians Ids\n    uint256 labTechID;\n\n    //state variable for pharmacists Ids\n    uint256 pharmacistID;\n\n    //state variable for admin Ids\n    uint256 adminID;\n\n    //////////////// STATE VARIABLES END////////////////////////////////\n\n    constructor() {\n        userID = 1; //initializes the doctor ID to 1\n        receptionistID = 1; //initializes the receptionist ID to 1\n        nurseID = 1; //initializes the nurse ID to 1\n        labTechID = 1; //initializes the labTech ID to 1\n        pharmacistID = 1; //initializes the pharmacist ID to 1\n        adminID = 1; //initializes the admin ID to 1\n    }\n\n    ////////////// CONSTRUCTOR END ///////////////////////////////////\n\n    ////////////////  ADDRESESS END ////////////////////////////////////\n\n    enum Role {\n        Receptionist,\n        Nurse,\n        Doctor,\n        LabTech,\n        Pharmacist,\n        Admin\n    }\n\n    ///////////////// ENUMS END //////////////////////////////////////\n\n    //a mapping for all users\n    mapping(address => User) private users;\n\n    //Role specific mappings\n    mapping(address => bool) private receptionists;\n    mapping(address => bool) private nurses;\n    mapping(address => bool) private doctors;\n    mapping(address => bool) private labTechs;\n    mapping(address => bool) private pharmacists;\n    mapping(address => bool) private admins;\n\n    //mapping for role structs\n    mapping(uint => Receptionist) private Receptionists;\n    mapping(uint => Nurse) private Nurses;\n    mapping(uint => Doctor) private Doctors;\n    mapping(uint => LabTech) private LabTechs;\n    mapping(uint => Pharmacist) private Pharmacists;\n    mapping(uint => Admin) private Admins;\n\n    //////////////// MAPPINGS END /////////////////////////////////////\n\n    // An event to show user has been successfully registered\n    event RegistrationSuccessful(uint userID, string _userName);\n\n    //an event to show successful login\n    event LoggedIn(uint _userID);\n\n    // Event to display user data\n    event UserDisplay(\n        uint256 userID,\n        string userName,\n        string email,\n        string role\n    );\n\n    //////////////// EVENTS END ///////////////////////////////////////\n\n    //modifier to check if the sender is a user\n    modifier onlyUser() {\n        require(users[msg.sender].userID != 0, \"Only users allowed\");\n        _;\n    }\n\n    //modifier to only allow receptionists to do something\n    modifier onlyReceptionists() {\n        require(\n            users[msg.sender].role == Role.Receptionist,\n            \"Only receptionists allowed\"\n        );\n        _;\n    }\n\n    //modifier to only allow nurses to do something\n    modifier onlyNurses() {\n        require(users[msg.sender].role == Role.Nurse, \"Only nurses allowed\");\n        _;\n    }\n\n    //modifier to only allow doctors to do something\n    modifier onlyDoctors() {\n        require(users[msg.sender].role == Role.Doctor, \"Only doctors allowed\");\n        _;\n    }\n\n    //modifier to only allow laboratory technicians to do something\n    modifier onlyLabTechs() {\n        require(\n            users[msg.sender].role == Role.LabTech,\n            \"Only laboratory technicians allowed\"\n        );\n        _;\n    }\n\n    //modifier to only allow pharmacists to do something\n    modifier onlyPharmacists() {\n        require(\n            users[msg.sender].role == Role.Pharmacist,\n            \"Only pharmacists allowed\"\n        );\n        _;\n    }\n\n    //modifier to only allow admins to do something\n    modifier onlyAdmins() {\n        require(users[msg.sender].role == Role.Admin, \"Only admins allowed\");\n        _;\n    }\n\n    ////////////// MODIFIERS END /////////////////////////////////////\n\n    //struct for all users\n    struct User {\n        uint userID;\n        string userName;\n        string email;\n        bytes32 password;\n        Role role;\n    }\n\n    //struct for receptionists\n    struct Receptionist {\n        uint receptionistID;\n        string receptionistName;\n    }\n\n    //struct for nurses\n    struct Nurse {\n        uint nurseID;\n        string nurseName;\n    }\n\n    //struct for doctors\n    struct Doctor {\n        uint doctorID;\n        string doctorName;\n    }\n\n    //struct for laboratory technician\n    struct LabTech {\n        uint labTechID;\n        string labTechName;\n    }\n\n    //struct for pharmacists\n    struct Pharmacist {\n        uint pharmacistID;\n        string pharmacistName;\n    }\n\n    struct Admin {\n        uint adminID;\n        string adminName;\n    }\n\n    ///////////////// STRUCTS END /////////////////////////////////////\n\n    function register(\n        string memory _userName,\n        string memory _email,\n        string memory _password,\n        Role _role\n    ) public {\n        bytes32 _passwordHash = keccak256(abi.encodePacked(_password));\n\n        users[msg.sender] = User({\n            userID: userID,\n            userName: _userName,\n            email: _email,\n            password: _passwordHash,\n            role: _role\n        });\n\n        // Update role-specific mappings\n        if (_role == Role.Receptionist) {\n            receptionists[msg.sender] = true;\n            Receptionists[receptionistID] = Receptionist({\n                receptionistID: receptionistID,\n                receptionistName: _userName\n            });\n            receptionistID++;\n        } else if (_role == Role.Nurse) {\n            nurses[msg.sender] = true;\n            Nurses[nurseID] = Nurse({nurseID: nurseID, nurseName: _userName});\n            nurseID++;\n        } else if (_role == Role.Doctor) {\n            doctors[msg.sender] = true;\n            Doctors[doctorID] = Doctor({\n                doctorID: doctorID,\n                doctorName: _userName\n            });\n            doctorID++;\n        } else if (_role == Role.LabTech) {\n            labTechs[msg.sender] = true;\n            LabTechs[labTechID] = LabTech({\n                labTechID: labTechID,\n                labTechName: _userName\n            });\n            labTechID++;\n        } else if (_role == Role.Pharmacist) {\n            pharmacists[msg.sender] = true;\n            Pharmacists[pharmacistID] = Pharmacist({\n                pharmacistID: pharmacistID,\n                pharmacistName: _userName\n            });\n            pharmacistID++;\n        } else if (_role == Role.Admin) {\n            admins[msg.sender] = true;\n            Admins[adminID] = Admin({adminID: adminID, adminName: _userName});\n            adminID++;\n        }\n        userID++;\n\n        emit RegistrationSuccessful(userID, _userName);\n    }\n\n    //function allow user to login in to the system\n    function login(\n        string memory _email,\n        string memory _password\n    ) public view returns (bool) {\n        bytes32 passwordHash = keccak256(abi.encodePacked(_password));\n        User memory _user = users[msg.sender];\n        if (\n            keccak256(abi.encodePacked(_user.email)) ==\n            keccak256(abi.encodePacked(_email)) &&\n            keccak256(abi.encodePacked(_user.password)) ==\n            keccak256(abi.encodePacked(passwordHash))\n        ) {\n            return true;\n        } else {\n            return false;\n        }\n    }\n\n    // Function to get the total number of users registered\n    function getTotalUsers() public view returns (uint256) {\n        return userID - 1; // Subtract 1 because the initial userID is 1\n    }\n\n\n    //////////////////// FUNCTIONS END //////////////////////////////////\n}\n",
  "sourcePath": "C:\\Users\\\\Desktop\\last\\src\\truffle\\contracts\\UserContract.sol",
  "compiler": {
    "name": "solc",
    "version": "0.8.19+commit.7dd6d404.Emscripten.clang"
  },
  "schemaVersion": "3.4.13",
  "updatedAt": "2023-07-29T10:55:22.971Z",
  "networkType": "ethereum",
  "devdoc": {
    "kind": "dev",
    "methods": {},
    "version": 1
  },
  "userdoc": {
    "kind": "user",
    "methods": {},
    "version": 1
  }
}