{
  "contractName": "UserContract",
  "abi": [
    {
      "inputs": [],
      "stateMutability": "nonpayable",
      "type": "constructor"
    },
    {
      "anonymous": false,
      "inputs": [
        {
          "indexed": false,
          "internalType": "uint256",
          "name": "_userID",
          "type": "uint256"
        }
      ],
      "name": "LoggedIn",
      "type": "event"
    },
    {
      "anonymous": false,
      "inputs": [
        {
          "indexed": false,
          "internalType": "uint256",
          "name": "userID",
          "type": "uint256"
        },
        {
          "indexed": false,
          "internalType": "string",
          "name": "_userName",
          "type": "string"
        }
      ],
      "name": "RegistrationSuccessful",
      "type": "event"
    },
    {
      "anonymous": false,
      "inputs": [
        {
          "indexed": false,
          "internalType": "uint256",
          "name": "userID",
          "type": "uint256"
        },
        {
          "indexed": false,
          "internalType": "string",
          "name": "userName",
          "type": "string"
        },
        {
          "indexed": false,
          "internalType": "string",
          "name": "email",
          "type": "string"
        },
        {
          "indexed": false,
          "internalType": "string",
          "name": "role",
          "type": "string"
        }
      ],
      "name": "UserDisplay",
      "type": "event"
    },
    {
      "inputs": [
        {
          "internalType": "string",
          "name": "_userName",
          "type": "string"
        },
        {
          "internalType": "string",
          "name": "_email",
          "type": "string"
        },
        {
          "internalType": "string",
          "name": "_password",
          "type": "string"
        },
        {
          "internalType": "enum UserContract.Role",
          "name": "_role",
          "type": "uint8"
        }
      ],
      "name": "register",
      "outputs": [],
      "stateMutability": "nonpayable",
      "type": "function"
    },
    {
      "inputs": [
        {
          "internalType": "string",
          "name": "_email",
          "type": "string"
        },
        {
          "internalType": "string",
          "name": "_password",
          "type": "string"
        }
      ],
      "name": "login",
      "outputs": [
        {
          "internalType": "bool",
          "name": "",
          "type": "bool"
        }
      ],
      "stateMutability": "view",
      "type": "function",
      "constant": true
    }
  ],
  "bytecode": "0x608060405234801561001057600080fd5b50600160008190556002819055600381905560048190556005819055600655610b3c8061003e6000396000f3fe608060405234801561001057600080fd5b5060043610610052577c0100000000000000000000000000000000000000000000000000000000600035046358467dbc8114610057578063796ed3391461007e575b600080fd5b61006a6100653660046107f4565b610093565b604051901515815260200160405180910390f35b61009161008c366004610858565b61030b565b005b600080826040516020016100a7919061091b565b60408051601f1981840301815282825280516020918201203360009081526007835283812060a0860190945283548552600184018054929650909493928401916100f090610937565b80601f016020809104026020016040519081016040528092919081815260200182805461011c90610937565b80156101695780601f1061013e57610100808354040283529160200191610169565b820191906000526020600020905b81548152906001019060200180831161014c57829003601f168201915b5050505050815260200160028201805461018290610937565b80601f01602080910402602001604051908101604052809291908181526020018280546101ae90610937565b80156101fb5780601f106101d0576101008083540402835291602001916101fb565b820191906000526020600020905b8154815290600101906020018083116101de57829003601f168201915b505050918352505060038201546020820152600482015460409091019060ff16600581111561022c5761022c610974565b600581111561023d5761023d610974565b81525050905084604051602001610254919061091b565b60405160208183030381529060405280519060200120816040015160405160200161027f919061091b565b604051602081830303815290604052805190602001201480156102ee57506040805160208101849052016040516020818303038152906040528051906020012081606001516040516020016102d691815260200190565b60405160208183030381529060405280519060200120145b156102fe57600192505050610305565b6000925050505b92915050565b60008260405160200161031e919061091b565b6040516020818303038152906040528051906020012090506040518060a00160405280600054815260200186815260200185815260200182815260200183600581111561036d5761036d610974565b90523360009081526007602090815260409091208251815590820151600182019061039890826109dc565b50604082015160028201906103ad90826109dc565b5060608201516003820155608082015160048201805460ff191660018360058111156103db576103db610974565b0217905550600091506103eb9050565b8260058111156103fd576103fd610974565b0361047357336000908152600860209081526040808320805460ff19166001908117909155815180830183526002548082528185018b8152908652600e90945291909320815181559151909282019061045690826109dc565b5050600280549150600061046983610aa2565b91905055506106f8565b600182600581111561048757610487610974565b036104f357336000908152600960209081526040808320805460ff19166001908117909155815180830183526003548082528185018b8152908652600f9094529190932081518155915190928201906104e090826109dc565b5050600380549150600061046983610aa2565b600282600581111561050757610507610974565b0361057257336000908152600a60209081526040808320805460ff191660019081179091558151808301835281548082528185018b8152908652601090945291909320815181559151909282019061055f90826109dc565b5050600180549150600061046983610aa2565b600382600581111561058657610586610974565b036105f257336000908152600b60209081526040808320805460ff19166001908117909155815180830183526004548082528185018b815290865260119094529190932081518155915190928201906105df90826109dc565b5050600480549150600061046983610aa2565b600482600581111561060657610606610974565b0361067257336000908152600c60209081526040808320805460ff19166001908117909155815180830183526005548082528185018b8152908652601290945291909320815181559151909282019061065f90826109dc565b5050600580549150600061046983610aa2565b600582600581111561068657610686610974565b036106f857336000908152600d60209081526040808320805460ff19166001908117909155815180830183526006548082528185018b815290865260139094529190932081518155915190928201906106df90826109dc565b505060068054915060006106f283610aa2565b91905055505b60008054908061070783610aa2565b91905055507ff8faab18c154b2401da3fa66203c1b688c537f57b092626a296d314df94d9cd06000548660405161073f929190610acc565b60405180910390a15050505050565b60e060020a634e487b7102600052604160045260246000fd5b600082601f83011261077857600080fd5b813567ffffffffffffffff808211156107935761079361074e565b604051601f8301601f19908116603f011681019082821181831017156107bb576107bb61074e565b816040528381528660208588010111156107d457600080fd5b836020870160208301376000602085830101528094505050505092915050565b6000806040838503121561080757600080fd5b823567ffffffffffffffff8082111561081f57600080fd5b61082b86838701610767565b9350602085013591508082111561084157600080fd5b5061084e85828601610767565b9150509250929050565b6000806000806080858703121561086e57600080fd5b843567ffffffffffffffff8082111561088657600080fd5b61089288838901610767565b955060208701359150808211156108a857600080fd5b6108b488838901610767565b945060408701359150808211156108ca57600080fd5b506108d787828801610767565b9250506060850135600681106108ec57600080fd5b939692955090935050565b60005b838110156109125781810151838201526020016108fa565b50506000910152565b6000825161092d8184602087016108f7565b9190910192915050565b60028104600182168061094b57607f821691505b60208210810361096e5760e060020a634e487b7102600052602260045260246000fd5b50919050565b60e060020a634e487b7102600052602160045260246000fd5b601f8211156109d7576000818152602081206020601f860104810160208610156109b45750805b6020601f860104820191505b818110156109d3578281556001016109c0565b5050505b505050565b815167ffffffffffffffff8111156109f6576109f661074e565b610a0a81610a048454610937565b8461098d565b602080601f831160018114610a435760008415610a275750858301515b60028086026008870290910a60001904198216178655506109d3565b600085815260208120601f198616915b82811015610a7257888601518255948401946001909101908401610a53565b5085821015610a9257878501516008601f88160260020a60001904191681555b5050505050600202600101905550565b600060018201610ac55760e060020a634e487b7102600052601160045260246000fd5b5060010190565b8281526040602082015260008251806040840152610af18160608501602087016108f7565b601f01601f191691909101606001939250505056fea26469706673582212206bd91fe10f6711d4e640b8a0ebd570fa479f74bb5cc58928da92a2c8e1495a2864736f6c63430008130033",
  "immutableReferences": {},
  "source": "// SPDX-License-Identifier: MIT\n\npragma solidity >=0.4.22 <0.9.0;\n\npragma experimental ABIEncoderV2;\n\ncontract UserContract {\n    \n    \n    //state variable for userIDs\n    uint256 userID;\n\n    //state variables for doctors Ids\n    uint256 doctorID;\n\n    //state variables for receptionists Ids\n    uint256 receptionistID;\n\n    //state variables for nurses Ids\n    uint256 nurseID;\n\n    //state variables for laboratory technicians Ids\n    uint256 labTechID;\n\n    //state variable for pharmacists Ids\n    uint256 pharmacistID;\n\n    //state variable for admin Ids\n    uint256 adminID;\n\n    //////////////// STATE VARIABLES END////////////////////////////////\n\n    constructor() {\n\n        userID = 1;          //initializes the doctor ID to 1\n        receptionistID =1;   //initializes the receptionist ID to 1\n        nurseID =1;          //initializes the nurse ID to 1\n        labTechID =1;        //initializes the labTech ID to 1\n        pharmacistID =1;     //initializes the pharmacist ID to 1\n        adminID =1;          //initializes the admin ID to 1\n\n    }\n\n\n    ////////////// CONSTRUCTOR END ///////////////////////////////////\n\n\n    ////////////////  ADDRESESS END ////////////////////////////////////\n\n    enum Role {Receptionist, Nurse, Doctor, LabTech, Pharmacist, Admin}\n\n    ///////////////// ENUMS END //////////////////////////////////////\n\n    //a mapping for all users\n    mapping(address => User) private users;\n\n    //Role specific mappings\n    mapping(address => bool) private receptionists;\n    mapping(address => bool) private nurses;\n    mapping(address => bool) private doctors;\n    mapping(address => bool) private labTechs;\n    mapping(address => bool) private pharmacists;\n    mapping(address => bool) private admins;\n\n    //mapping for role structs\n    mapping(uint => Receptionist) private Receptionists;\n    mapping(uint => Nurse) private Nurses;\n    mapping(uint => Doctor) private Doctors;\n    mapping(uint => LabTech) private LabTechs;\n    mapping(uint => Pharmacist) private Pharmacists;\n    mapping(uint => Admin) private Admins;\n\n\n\n    //////////////// MAPPINGS END /////////////////////////////////////\n\n    // An event to show user has been successfully registered\n    event RegistrationSuccessful(uint userID, string _userName);\n\n    //an event to show successful login\n    event LoggedIn(uint _userID);\n\n    // Event to display user data\n    event UserDisplay(uint256 userID, string userName, string email, string role);\n\n\n\n\n    //////////////// EVENTS END ///////////////////////////////////////\n\n    //modifier to check if the sender is a user\n    modifier onlyUser() {\n        \n        require(users[msg.sender].userID != 0, \"Only users allowed\");\n        _;\n    }\n\n    //modifier to only allow receptionists to do something\n    modifier onlyReceptionists() {\n\n        require(users[msg.sender].role == Role.Receptionist, \"Only receptionists allowed\");\n        _;\n    }\n\n    //modifier to only allow nurses to do something\n    modifier onlyNurses() {\n\n        require(users[msg.sender].role == Role.Nurse, \"Only nurses allowed\");\n        _;\n    }\n\n    //modifier to only allow doctors to do something\n    modifier onlyDoctors() {\n\n        require(users[msg.sender].role == Role.Doctor, \"Only doctors allowed\");\n        _;\n    }\n\n    //modifier to only allow laboratory technicians to do something\n    modifier onlyLabTechs() {\n\n        require(users[msg.sender].role == Role.LabTech, \"Only laboratory technicians allowed\");\n        _;\n    }\n\n    //modifier to only allow pharmacists to do something\n    modifier onlyPharmacists() {\n\n        require(users[msg.sender].role == Role.Pharmacist, \"Only pharmacists allowed\");\n        _;\n    }\n\n    //modifier to only allow admins to do something\n    modifier onlyAdmins() {\n\n        require(users[msg.sender].role == Role.Admin, \"Only admins allowed\");\n        _;\n    }\n\n\n\n\n\n\n    ////////////// MODIFIERS END /////////////////////////////////////\n\n\n    //struct for all users\n    struct User {\n\n        uint userID;\n        string userName;\n        string email;\n        bytes32 password;\n        Role role;\n\n    }\n\n    //struct for receptionists\n    struct Receptionist {\n\n        uint receptionistID;\n        string receptionistName;\n    }\n\n    //struct for nurses\n    struct Nurse {\n        uint nurseID;\n        string nurseName;\n    }\n    \n    //struct for doctors\n    struct Doctor {\n\n        uint doctorID;\n        string doctorName;\n    }\n\n    //struct for laboratory technician\n    struct LabTech {\n        uint labTechID;\n        string labTechName;\n    }\n\n    //struct for pharmacists\n    struct Pharmacist {\n\n        uint pharmacistID;\n        string pharmacistName;\n    }\n\n    struct Admin {\n\n        uint adminID;\n        string adminName;\n    }\n\n\n\n\n\n\n\n\n    ///////////////// STRUCTS END /////////////////////////////////////\n\n\n\n    function register(\n\n        string memory _userName,\n        string memory _email,\n        string memory _password,\n        Role _role\n\n    ) public {\n\n        bytes32 _passwordHash = keccak256(abi.encodePacked(_password));\n\n        users[msg.sender] = User({\n\n            userID: userID,\n            userName: _userName,\n            email: _email,\n            password: _passwordHash,\n            role: _role\n\n        });\n\n        // Update role-specific mappings\n        if (_role == Role.Receptionist) {\n            receptionists[msg.sender] = true;\n            Receptionists[receptionistID] = Receptionist({\n\n                receptionistID: receptionistID,\n                receptionistName: _userName\n            });\n            receptionistID++;\n\n        } else if (_role == Role.Nurse) {\n            nurses[msg.sender] = true;\n            Nurses[nurseID] = Nurse({\n\n                nurseID: nurseID,\n                nurseName: _userName\n            });\n            nurseID++;\n\n        } else if (_role == Role.Doctor) {\n            doctors[msg.sender] = true;\n            Doctors[doctorID] = Doctor({\n\n                doctorID: doctorID,\n                doctorName: _userName\n            });\n            doctorID++;\n\n        } else if (_role == Role.LabTech) {\n            labTechs[msg.sender] = true;\n            LabTechs[labTechID] = LabTech({\n\n                labTechID: labTechID,\n                labTechName: _userName\n            });\n            labTechID++;\n\n        } else if (_role == Role.Pharmacist) {\n            pharmacists[msg.sender] = true;\n            Pharmacists[pharmacistID] = Pharmacist({\n\n                pharmacistID: pharmacistID,\n                pharmacistName: _userName\n            });\n            pharmacistID++;\n\n        } else if (_role == Role.Admin) {\n            admins[msg.sender] = true;\n            Admins[adminID] = Admin({\n\n                adminID: adminID,\n                adminName: _userName\n            });\n            adminID++;\n\n        }        \n        userID++;\n\n        emit RegistrationSuccessful(userID, _userName);\n\n    }\n\n    //function allow user to login in to the system\n    function login(\n\n\n        string memory _email,\n        string memory _password\n    ) public view returns(bool) {\n\n        bytes32 passwordHash = keccak256(abi.encodePacked(_password));\n        User memory _user =   users[msg.sender];\n        if (\n            keccak256(abi.encodePacked(_user.email)) == keccak256(abi.encodePacked(_email)) && \n            keccak256(abi.encodePacked(_user.password)) ==keccak256(abi.encodePacked(passwordHash))\n        ) {\n            return true;\n        } else {\n            return false;\n        }\n    }\n\n\n\n    //////////////////// FUNCTIONS END //////////////////////////////////\n\n}",
  "sourcePath": "C:\\Users\\\\Desktop\\last\\src\\truffle\\contracts\\UserContract.sol",
  "compiler": {
    "name": "solc",
    "version": "0.8.19+commit.7dd6d404.Emscripten.clang"
  },
  "schemaVersion": "3.4.13",
  "updatedAt": "2023-07-27T13:05:28.945Z",
  "networkType": "ethereum",
  "devdoc": {
    "kind": "dev",
    "methods": {},
    "version": 1
  },
  "userdoc": {
    "kind": "user",
    "methods": {},
    "version": 1
  }
}